{
  "transactions": [
    {
      "hash": "0x92fe6bb8b3bff7d569cf9695ad2f053c000732a10a9b2bebef36b04b9d8701db",
      "transactionType": "CREATE",
      "contractName": "AgentLaunchpad",
      "contractAddress": "0xc8e53edebd040e8d9d194082fc2cbc67465e9c7c",
      "function": null,
      "arguments": null,
      "transaction": {
        "from": "0xa1a629d832972db3b84a4f5fa42d50eff7c8f8de",
        "gas": "0x26c983",
        "value": "0x0",
        "input": "0x6080604052348015600e575f5ffd5b506122608061001c5f395ff3fe60806040526004361061011b575f3560e01c80639d8669851161009d578063d90667c011610062578063d90667c0146103f1578063de1164bb14610404578063f2fde38b14610423578063f3a7093914610442578063feb9915714610461575f5ffd5b80639d866985146102e6578063a65497c614610348578063c356e2d414610367578063c952de3914610389578063cece8f98146103bd575f5ffd5b806364edfad5116100e357806364edfad51461021c578063715018a61461024b578063720d17601461025f57806374e12a861461028b5780638da5cb5b146102aa575f5ffd5b8063150b7a021461011f5780631ffbb064146101675780633fd773e9146101a5578063485cc955146101dc5780635f8db941146101fd575b5f5ffd5b34801561012a575f5ffd5b50610149610139366004611731565b630a85bd0160e11b949350505050565b6040516001600160e01b031990911681526020015b60405180910390f35b348015610172575f5ffd5b50610195610181366004611794565b60076020525f908152604090205460ff1681565b604051901515815260200161015e565b3480156101b0575f5ffd5b506002546101c4906001600160a01b031681565b6040516001600160a01b03909116815260200161015e565b3480156101e7575f5ffd5b506101fb6101f63660046117ad565b610480565b005b348015610208575f5ffd5b506101fb6102173660046117de565b6107dc565b348015610227575f5ffd5b5061023b610236366004611838565b6109e5565b60405161015e949392919061187d565b348015610256575f5ffd5b506101fb610b26565b34801561026a575f5ffd5b5061027e610279366004611838565b610b39565b60405161015e91906118c5565b348015610296575f5ffd5b5061027e6102a5366004611838565b610bd0565b3480156102b5575f5ffd5b507f9016d09d72d40fdae2fd8ceac6b6234c7706214fd39c1cd1e609a0528c199300546001600160a01b03166101c4565b3480156102f1575f5ffd5b50610338610300366004611838565b60046020525f90815260409020805460018201546002909201546001600160a01b039182169291821691600160a01b900460ff169084565b60405161015e949392919061190b565b348015610353575f5ffd5b506101fb610362366004611794565b610be8565b348015610372575f5ffd5b5061037b610c12565b60405161015e92919061193f565b348015610394575f5ffd5b506101c46103a3366004611794565b60096020525f90815260409020546001600160a01b031681565b3480156103c8575f5ffd5b506101c46103d7366004611794565b60086020525f90815260409020546001600160a01b031681565b6101c46103ff3660046119fa565b610d5f565b34801561040f575f5ffd5b506003546101c4906001600160a01b031681565b34801561042e575f5ffd5b506101fb61043d366004611794565b610ff6565b34801561044d575f5ffd5b506101fb61045c366004611abf565b611033565b34801561046c575f5ffd5b506101fb61047b366004611b02565b6111de565b5f610489611369565b805490915060ff600160401b82041615906001600160401b03165f811580156104af5750825b90505f826001600160401b031660011480156104ca5750303b155b9050811580156104d8575080155b156104f65760405163f92ee8a960e01b815260040160405180910390fd5b845467ffffffffffffffff19166001178555831561052057845460ff60401b1916600160401b1785555b61052987611393565b600280546001600160a01b0319166001600160a01b038816178155604080516101008101825260c08101928352617b7d60f01b60e082015291825280518082018252601081526f44756d6d7920457870657269656e636560801b60208083019190915280840191909152815180820183525f8082528484019190915282518084018452601a81527f697066733a2f2f516d4167656e74416e696d6174696f6e34353600000000000081840152606085015282516080818101909452605080825291949384019290919061218b908301398152602001617b7d60f01b5f1b81525090505f6040518060800160405280605081526020016121db60509139600254604051636a41564f60e01b81529192506001600160a01b031690636a41564f9061065c9030905f9086908890600401611b2a565b6020604051808303815f875af1158015610678573d5f5f3e3d5ffd5b505050506040513d601f19601f8201168201806040525081019061069c9190611bf2565b50600254604051636a41564f60e01b81526001600160a01b0390911690636a41564f906106d39030905f9086908890600401611b2a565b6020604051808303815f875af11580156106ef573d5f5f3e3d5ffd5b505050506040513d601f19601f820116820180604052508101906107139190611bf2565b50600254604051636a41564f60e01b81526001600160a01b0390911690636a41564f9061074a9030905f9086908890600401611b2a565b6020604051808303815f875af1158015610766573d5f5f3e3d5ffd5b505050506040513d601f19601f8201168201806040525081019061078a9190611bf2565b50505083156107d357845460ff60401b19168555604051600181527fc7f505b2f371ae2175ee4913f4499e1f2633a7b5936321eed1cdaeb6115181d29060200160405180910390a15b50505050505050565b6003546001600160a01b0316331461082c5760405162461bcd60e51b815260206004820152600e60248201526d139bdd08185d5d1a1bdc9a5e995960921b60448201526064015b60405180910390fd5b60015f85815260046020526040902060010154600160a01b900460ff16600281111561085a5761085a6118d7565b1461089b5760405162461bcd60e51b815260206004820152601160248201527014995c5d595cdd081b9bdd08199bdd5b99607a1b6044820152606401610823565b5f84815260046020526040902060020154156108ed5760405162461bcd60e51b8152602060048201526011602482015270125b9d985b1a59081858dd1a5bdb881251607a1b6044820152606401610823565b5f848152600460205260408120600101805460ff60a01b1916600160a11b17905561091890856113a4565b505f84815260046020819052604091829020549151632d46ea4960e01b81526001600160a01b0390921691632d46ea49916109599187918791879101611c09565b5f604051808303815f87803b158015610970575f5ffd5b505af1158015610982573d5f5f3e3d5ffd5b5050505f85815260046020526040908190205490516001600160a01b03909116915085907f5fdc54a6afcfc7e1955de8290835b83327283d125bfd8b881c0adc97a3bc21ab906109d790869088908790611c3c565b60405180910390a350505050565b600a6020525f90815260409020805460018201546002830180546001600160a01b03938416949290931692610a1990611c69565b80601f0160208091040260200160405190810160405280929190818152602001828054610a4590611c69565b8015610a905780601f10610a6757610100808354040283529160200191610a90565b820191905f5260205f20905b815481529060010190602001808311610a7357829003601f168201915b505050505090806003018054610aa590611c69565b80601f0160208091040260200160405190810160405280929190818152602001828054610ad190611c69565b8015610b1c5780601f10610af357610100808354040283529160200191610b1c565b820191905f5260205f20905b815481529060010190602001808311610aff57829003601f168201915b5050505050905084565b610b2e6113b6565b610b375f611411565b565b60056020525f908152604090208054610b5190611c69565b80601f0160208091040260200160405190810160405280929190818152602001828054610b7d90611c69565b8015610bc85780601f10610b9f57610100808354040283529160200191610bc8565b820191905f5260205f20905b815481529060010190602001808311610bab57829003601f168201915b505050505081565b60066020525f908152604090208054610b5190611c69565b610bf06113b6565b600380546001600160a01b0319166001600160a01b0392909216919091179055565b6060805f610c1f5f611481565b90505f81516001600160401b03811115610c3b57610c3b61168e565b604051908082528060200260200182016040528015610c8b57816020015b604080516080810182525f8082526020808301829052928201819052606082015282525f19909201910181610c595790505b5090505f5b8251811015610d555760045f848381518110610cae57610cae611ca1565b60209081029190910181015182528181019290925260409081015f20815160808101835281546001600160a01b039081168252600183015490811694820194909452929091830190600160a01b900460ff166002811115610d1157610d116118d7565b6002811115610d2257610d226118d7565b8152602001600282015481525050828281518110610d4257610d42611ca1565b6020908102919091010152600101610c90565b5090939092509050565b5f5f6040518060800160405280605081526020016121db6050913990505f6040518060c0016040528086815260200185815260200160405180602001604052805f81525081526020016040518060400160405280601a81526020017f697066733a2f2f516d4167656e74416e696d6174696f6e343536000000000000815250815260200160405180608001604052806050815260200161218b605091398152602001617b7d60f01b5f1b815250905030604051610e1b90611666565b6001600160a01b039091168152602001604051809103905ff080158015610e44573d5f5f3e3d5ffd5b506001600160a01b038082165f818152600760209081526040808320805460ff191660011790558d85168084526008835281842080546001600160a01b03199081168717909155948452600990925280832080549094169091179092556002549151636a41564f60e01b815293965092911690636a41564f903490610ed3903390309089908990600401611b2a565b60206040518083038185885af1158015610eef573d5f5f3e3d5ffd5b50505050506040513d601f19601f82011682018060405250810190610f149190611bf2565b604080516080810182523381526001600160a01b038c811660208084019182528385018e8152606085018e90525f878152600a909252949020835181549084166001600160a01b03199182161782559151600182018054919094169216919091179091559151929350916002820190610f8d9082611d01565b5060608201516003820190610fa29082611d01565b50905050336001600160a01b0316817f19cbbad03ed58e19c069e99cbc146a5c6ccf0e56c2a09edcfcd8dd2d543845f98686604051610fe2929190611dbb565b60405180910390a350505095945050505050565b610ffe6113b6565b6001600160a01b03811661102757604051631e4fbdf760e01b81525f6004820152602401610823565b61103081611411565b50565b6003546001600160a01b0316331461107e5760405162461bcd60e51b815260206004820152600e60248201526d139bdd08185d5d1a1bdc9a5e995960921b6044820152606401610823565b60015f83815260046020526040902060010154600160a01b900460ff1660028111156110ac576110ac6118d7565b146110ed5760405162461bcd60e51b815260206004820152601160248201527014995c5d595cdd081b9bdd08199bdd5b99607a1b6044820152606401610823565b5f828152600460205260409020600201546001146111415760405162461bcd60e51b8152602060048201526011602482015270125b9d985b1a59081858dd1a5bdb881251607a1b6044820152606401610823565b5f828152600460205260408120600101805460ff60a01b1916600160a11b17905561116c90836113a4565b505f8281526006602052604090206111848282611d01565b505f82815260046020526040908190205490516001600160a01b039091169083907fd002c90bd2d3b2a335fcc666639da3fa6e58dcf58157533c0019997bf8b319b3906111d29085906118c5565b60405180910390a35050565b6001600160a01b038281165f90815260086020526040902054166112365760405162461bcd60e51b815260206004820152600f60248201526e1059d95b9d081b9bdd08199bdd5b99608a1b6044820152606401610823565b6001600160a01b038281165f908152600860209081526040808320548151941691840182905283018490524260608401529160800160408051808303601f1901815282825280516020918201206080840183526001600160a01b0388811685528681168386019081526001868601818152606088018b90525f858152600490965295909420865181549084166001600160a01b03199182161782559151948101805495909316918516821783559451929650919290916001600160a81b031990911617600160a01b836002811115611310576113106118d7565b02179055506060919091015160029091015561132c5f8261148d565b50816001600160a01b0316817fd8ef40481e78617a5bacf7e4566fbb16a8ab0f264fa4ab74220c3524af42c13c856040516109d791815260200190565b5f807ff0c57e16840df040f15088dc2f81fe391c3923bec73e23a9662efc9c229c6a005b92915050565b61139b611498565b611030816114bd565b5f6113af83836114c5565b9392505050565b336113e87f9016d09d72d40fdae2fd8ceac6b6234c7706214fd39c1cd1e609a0528c199300546001600160a01b031690565b6001600160a01b031614610b375760405163118cdaa760e01b8152336004820152602401610823565b7f9016d09d72d40fdae2fd8ceac6b6234c7706214fd39c1cd1e609a0528c19930080546001600160a01b031981166001600160a01b03848116918217845560405192169182907f8be0079c531659141344cd1fd0a4f28419497f9722a3daafe3b4186f6b6457e0905f90a3505050565b60605f6113af836115a8565b5f6113af8383611601565b6114a061164d565b610b3757604051631afcd79f60e31b815260040160405180910390fd5b610ffe611498565b5f818152600183016020526040812054801561159f575f6114e7600183611de6565b85549091505f906114fa90600190611de6565b9050808214611559575f865f01828154811061151857611518611ca1565b905f5260205f200154905080875f01848154811061153857611538611ca1565b5f918252602080832090910192909255918252600188019052604090208390555b855486908061156a5761156a611e05565b600190038181905f5260205f20015f90559055856001015f8681526020019081526020015f205f90556001935050505061138d565b5f91505061138d565b6060815f018054806020026020016040519081016040528092919081815260200182805480156115f557602002820191905f5260205f20905b8154815260200190600101908083116115e1575b50505050509050919050565b5f81815260018301602052604081205461164657508154600181810184555f84815260208082209093018490558454848252828601909352604090209190915561138d565b505f61138d565b5f611656611369565b54600160401b900460ff16919050565b61037180611e1a83390190565b80356001600160a01b0381168114611689575f5ffd5b919050565b634e487b7160e01b5f52604160045260245ffd5b5f82601f8301126116b1575f5ffd5b8135602083015f5f6001600160401b038411156116d0576116d061168e565b50604051601f19601f85018116603f011681018181106001600160401b03821117156116fe576116fe61168e565b604052838152905080828401871015611715575f5ffd5b838360208301375f602085830101528094505050505092915050565b5f5f5f5f60808587031215611744575f5ffd5b61174d85611673565b935061175b60208601611673565b92506040850135915060608501356001600160401b0381111561177c575f5ffd5b611788878288016116a2565b91505092959194509250565b5f602082840312156117a4575f5ffd5b6113af82611673565b5f5f604083850312156117be575f5ffd5b6117c783611673565b91506117d560208401611673565b90509250929050565b5f5f5f5f608085870312156117f1575f5ffd5b8435935061180160208601611673565b925060408501356001600160401b0381111561181b575f5ffd5b611827878288016116a2565b949793965093946060013593505050565b5f60208284031215611848575f5ffd5b5035919050565b5f81518084528060208401602086015e5f602082860101526020601f19601f83011685010191505092915050565b6001600160a01b038581168252841660208201526080604082018190525f906118a89083018561184f565b82810360608401526118ba818561184f565b979650505050505050565b602081525f6113af602083018461184f565b634e487b7160e01b5f52602160045260245ffd5b6003811061190757634e487b7160e01b5f52602160045260245ffd5b9052565b6001600160a01b038581168252841660208201526080810161193060408301856118eb565b82606083015295945050505050565b604080825283519082018190525f9060208501906060840190835b8181101561197857835183526020938401939092019160010161195a565b5050838103602080860191909152855180835291810192508501905f5b818110156119ee57825180516001600160a01b03908116865260208083015190911690860152604080820151906119ce908701826118eb565b506060908101519085015260809093019260209290920191600101611995565b50919695505050505050565b5f5f5f5f5f60a08688031215611a0e575f5ffd5b611a1786611673565b945060208601356001600160401b03811115611a31575f5ffd5b611a3d888289016116a2565b94505060408601356001600160401b03811115611a58575f5ffd5b611a64888289016116a2565b93505060608601356001600160401b03811115611a7f575f5ffd5b611a8b888289016116a2565b92505060808601356001600160401b03811115611aa6575f5ffd5b611ab2888289016116a2565b9150509295509295909350565b5f5f60408385031215611ad0575f5ffd5b8235915060208301356001600160401b03811115611aec575f5ffd5b611af8858286016116a2565b9150509250929050565b5f5f60408385031215611b13575f5ffd5b611b1c83611673565b946020939093013593505050565b6001600160a01b038581168252841660208201526080604082018190525f90611b559083018561184f565b8281036060840152835160c08252611b7060c083018261184f565b905060208501518282036020840152611b89828261184f565b91505060408501518282036040840152611ba3828261184f565b91505060608501518282036060840152611bbd828261184f565b91505060808501518282036080840152611bd7828261184f565b91505060a085015160a0830152809250505095945050505050565b5f60208284031215611c02575f5ffd5b5051919050565b6001600160a01b03841681526060602082018190525f90611c2c9083018561184f565b9050826040830152949350505050565b606081525f611c4e606083018661184f565b6001600160a01b039490941660208301525060400152919050565b600181811c90821680611c7d57607f821691505b602082108103611c9b57634e487b7160e01b5f52602260045260245ffd5b50919050565b634e487b7160e01b5f52603260045260245ffd5b601f821115611cfc57805f5260205f20601f840160051c81016020851015611cda5750805b601f840160051c820191505b81811015611cf9575f8155600101611ce6565b50505b505050565b81516001600160401b03811115611d1a57611d1a61168e565b611d2e81611d288454611c69565b84611cb5565b6020601f821160018114611d60575f8315611d495750848201515b5f19600385901b1c1916600184901b178455611cf9565b5f84815260208120601f198516915b82811015611d8f5787850151825560209485019460019092019101611d6f565b5084821015611dac57868401515f19600387901b60f8161c191681555b50505050600190811b01905550565b6001600160a01b03831681526040602082018190525f90611dde9083018461184f565b949350505050565b8181038181111561138d57634e487b7160e01b5f52601160045260245ffd5b634e487b7160e01b5f52603160045260245ffdfe60a0604052348015600e575f5ffd5b50604051610371380380610371833981016040819052602b91603b565b6001600160a01b03166080526066565b5f60208284031215604a575f5ffd5b81516001600160a01b0381168114605f575f5ffd5b9392505050565b6080516102ee6100835f395f81816047015260b101526102ee5ff3fe60806040526004361061002b575f3560e01c806302669b52146100365780632d46ea4914610085575f5ffd5b3661003257005b5f5ffd5b348015610041575f5ffd5b506100697f000000000000000000000000000000000000000000000000000000000000000081565b6040516001600160a01b03909116815260200160405180910390f35b348015610090575f5ffd5b506100a461009f3660046101c8565b6100a6565b005b336001600160a01b037f000000000000000000000000000000000000000000000000000000000000000016146101145760405162461bcd60e51b815260206004820152600e60248201526d139bdd08185d5d1a1bdc9a5e995960921b60448201526064015b60405180910390fd5b5f836001600160a01b0316828460405161012e91906102a2565b5f6040518083038185875af1925050503d805f8114610168576040519150601f19603f3d011682016040523d82523d5f602084013e61016d565b606091505b50509050806101ae5760405162461bcd60e51b815260206004820152600d60248201526c1058dd1a5bdb8819985a5b1959609a1b604482015260640161010b565b50505050565b634e487b7160e01b5f52604160045260245ffd5b5f5f5f606084860312156101da575f5ffd5b83356001600160a01b03811681146101f0575f5ffd5b9250602084013567ffffffffffffffff81111561020b575f5ffd5b8401601f8101861361021b575f5ffd5b803567ffffffffffffffff811115610235576102356101b4565b604051601f8201601f19908116603f0116810167ffffffffffffffff81118282101715610264576102646101b4565b60405281815282820160200188101561027b575f5ffd5b816020840160208301375f9181016020019190915293969395505050506040919091013590565b5f82518060208501845e5f92019182525091905056fea2646970667358221220c77fcad3af3f2bad07adb8eb36d12f7f305f105374dd9984dd4ea2b93f303acb64736f6c634300081c003368747470733a2f2f676174657761792e70696e6174612e636c6f75642f697066732f516d624a574145537143736634524643714559376a6563436173686a387573586979444e664b745a4377777a476268747470733a2f2f676174657761792e70696e6174612e636c6f75642f697066732f516d6451483368694a6a486347435067586f6442754b6d5a644b756154773764424c47546657556b6376436f6f41a26469706673582212201da284cb954f77e7ddea6f7d9df9abe61ed6a8038d1bb2afa291f95815db939d64736f6c634300081c0033",
        "nonce": "0x4a",
        "chainId": "0x38"
      },
      "additionalContracts": [],
      "isFixedGasLimit": false
    },
    {
      "hash": "0xbd2a0b803383282997044fc535cef54c0034713e60478b9914ec315c733830a5",
      "transactionType": "CALL",
      "contractName": "AgentLaunchpad",
      "contractAddress": "0xc8e53edebd040e8d9d194082fc2cbc67465e9c7c",
      "function": "initialize(address,address)",
      "arguments": [
        "0xA1a629d832972DB3b84A4f5Fa42d50eFF7c8F8dE",
        "0xd7Deb29ddBB13607375Ce50405A574AC2f7d978d"
      ],
      "transaction": {
        "from": "0xa1a629d832972db3b84a4f5fa42d50eff7c8f8de",
        "to": "0xc8e53edebd040e8d9d194082fc2cbc67465e9c7c",
        "gas": "0x23849b",
        "value": "0x0",
        "input": "0x485cc955000000000000000000000000a1a629d832972db3b84a4f5fa42d50eff7c8f8de000000000000000000000000d7deb29ddbb13607375ce50405a574ac2f7d978d",
        "nonce": "0x4b",
        "chainId": "0x38"
      },
      "additionalContracts": [],
      "isFixedGasLimit": false
    },
    {
      "hash": "0x70a9d7ae8eda4cbc540814878808cd6f4f80fa442e46104f97232c00a5937191",
      "transactionType": "CALL",
      "contractName": "AgentLaunchpad",
      "contractAddress": "0xc8e53edebd040e8d9d194082fc2cbc67465e9c7c",
      "function": "setAVS(address)",
      "arguments": [
        "0xA1a629d832972DB3b84A4f5Fa42d50eFF7c8F8dE"
      ],
      "transaction": {
        "from": "0xa1a629d832972db3b84a4f5fa42d50eff7c8f8de",
        "to": "0xc8e53edebd040e8d9d194082fc2cbc67465e9c7c",
        "gas": "0xf8f5",
        "value": "0x0",
        "input": "0xa65497c6000000000000000000000000a1a629d832972db3b84a4f5fa42d50eff7c8f8de",
        "nonce": "0x4c",
        "chainId": "0x38"
      },
      "additionalContracts": [],
      "isFixedGasLimit": false
    },
    {
      "hash": "0x374985b2e44e713f6a557f10176b7f7b8b6eeda1cb648b903f6823c0971c0b30",
      "transactionType": "CALL",
      "contractName": "AgentLaunchpad",
      "contractAddress": "0xc8e53edebd040e8d9d194082fc2cbc67465e9c7c",
      "function": "createAgent(address,string,string,string,string)",
      "arguments": [
        "0xe29315aF2cC7e4D69c50A962829B2C122ce94444",
        "Buy 1000 ETH",
        "Buy 1000 ETH",
        "I am a trader",
        "I am a trader"
      ],
      "transaction": {
        "from": "0xa1a629d832972db3b84a4f5fa42d50eff7c8f8de",
        "to": "0xc8e53edebd040e8d9d194082fc2cbc67465e9c7c",
        "gas": "0x1293b7",
        "value": "0x2386f26fc10000",
        "input": "0xd90667c0000000000000000000000000e29315af2cc7e4d69c50a962829b2c122ce9444400000000000000000000000000000000000000000000000000000000000000a000000000000000000000000000000000000000000000000000000000000000e000000000000000000000000000000000000000000000000000000000000001200000000000000000000000000000000000000000000000000000000000000160000000000000000000000000000000000000000000000000000000000000000c4275792031303030204554480000000000000000000000000000000000000000000000000000000000000000000000000000000000000000000000000000000c4275792031303030204554480000000000000000000000000000000000000000000000000000000000000000000000000000000000000000000000000000000d4920616d20612074726164657200000000000000000000000000000000000000000000000000000000000000000000000000000000000000000000000000000d4920616d20612074726164657200000000000000000000000000000000000000",
        "nonce": "0x4d",
        "chainId": "0x38"
      },
      "additionalContracts": [
        {
          "transactionType": "CREATE",
          "contractName": "Agent",
          "address": "0x9a6dfbcf0ba03f49f21ddad0e12fade1a7def7fc",
          "initCode": "0x60a0604052348015600e575f5ffd5b50604051610371380380610371833981016040819052602b91603b565b6001600160a01b03166080526066565b5f60208284031215604a575f5ffd5b81516001600160a01b0381168114605f575f5ffd5b9392505050565b6080516102ee6100835f395f81816047015260b101526102ee5ff3fe60806040526004361061002b575f3560e01c806302669b52146100365780632d46ea4914610085575f5ffd5b3661003257005b5f5ffd5b348015610041575f5ffd5b506100697f000000000000000000000000000000000000000000000000000000000000000081565b6040516001600160a01b03909116815260200160405180910390f35b348015610090575f5ffd5b506100a461009f3660046101c8565b6100a6565b005b336001600160a01b037f000000000000000000000000000000000000000000000000000000000000000016146101145760405162461bcd60e51b815260206004820152600e60248201526d139bdd08185d5d1a1bdc9a5e995960921b60448201526064015b60405180910390fd5b5f836001600160a01b0316828460405161012e91906102a2565b5f6040518083038185875af1925050503d805f8114610168576040519150601f19603f3d011682016040523d82523d5f602084013e61016d565b606091505b50509050806101ae5760405162461bcd60e51b815260206004820152600d60248201526c1058dd1a5bdb8819985a5b1959609a1b604482015260640161010b565b50505050565b634e487b7160e01b5f52604160045260245ffd5b5f5f5f606084860312156101da575f5ffd5b83356001600160a01b03811681146101f0575f5ffd5b9250602084013567ffffffffffffffff81111561020b575f5ffd5b8401601f8101861361021b575f5ffd5b803567ffffffffffffffff811115610235576102356101b4565b604051601f8201601f19908116603f0116810167ffffffffffffffff81118282101715610264576102646101b4565b60405281815282820160200188101561027b575f5ffd5b816020840160208301375f9181016020019190915293969395505050506040919091013590565b5f82518060208501845e5f92019182525091905056fea2646970667358221220c77fcad3af3f2bad07adb8eb36d12f7f305f105374dd9984dd4ea2b93f303acb64736f6c634300081c0033000000000000000000000000c8e53edebd040e8d9d194082fc2cbc67465e9c7c"
        }
      ],
      "isFixedGasLimit": false
    },
    {
      "hash": "0xa8a83aabe5bc606597e065cca1a5c65aaf9726afe8d7db81a2ffc1f003fe92f9",
      "transactionType": "CALL",
      "contractName": "AgentLaunchpad",
      "contractAddress": "0xc8e53edebd040e8d9d194082fc2cbc67465e9c7c",
      "function": "sendRequest(address,uint256)",
      "arguments": [
        "0xe29315aF2cC7e4D69c50A962829B2C122ce94444",
        "1"
      ],
      "transaction": {
        "from": "0xa1a629d832972db3b84a4f5fa42d50eff7c8f8de",
        "to": "0xc8e53edebd040e8d9d194082fc2cbc67465e9c7c",
        "gas": "0x39257",
        "value": "0x0",
        "input": "0xfeb99157000000000000000000000000e29315af2cc7e4d69c50a962829b2c122ce944440000000000000000000000000000000000000000000000000000000000000001",
        "nonce": "0x4e",
        "chainId": "0x38"
      },
      "additionalContracts": [],
      "isFixedGasLimit": false
    },
    {
      "hash": "0x072aa997f99b314e5e2abd877665da4a90d7c24364f75731cd4bdec91b29fc24",
      "transactionType": "CALL",
      "contractName": "AgentLaunchpad",
      "contractAddress": "0xc8e53edebd040e8d9d194082fc2cbc67465e9c7c",
      "function": "sendRequest(address,uint256)",
      "arguments": [
        "0xe29315aF2cC7e4D69c50A962829B2C122ce94444",
        "0"
      ],
      "transaction": {
        "from": "0xa1a629d832972db3b84a4f5fa42d50eff7c8f8de",
        "to": "0xc8e53edebd040e8d9d194082fc2cbc67465e9c7c",
        "gas": "0x297d7",
        "value": "0x0",
        "input": "0xfeb99157000000000000000000000000e29315af2cc7e4d69c50a962829b2c122ce944440000000000000000000000000000000000000000000000000000000000000000",
        "nonce": "0x4f",
        "chainId": "0x38"
      },
      "additionalContracts": [],
      "isFixedGasLimit": false
    }
  ],
  "receipts": [
    {
      "status": "0x1",
      "cumulativeGasUsed": "0xd44353",
      "logs": [],
      "logsBloom": "0x00000000000000000000000000000000000000000000000000000000000000000000000000000000000000000000000000000000000000000000000000000000000000000000000000000000000000000000000000000000000000000000000000000000000000000000000000000000000000000000000000000000000000000000000000000000000000000000000000000000000000000000000000000000000000000000000000000000000000000000000000000000000000000000000000000000000000000000000000000000000000000000000000000000000000000000000000000000000000000000000000000000000000000000000000000000",
      "type": "0x2",
      "transactionHash": "0x92fe6bb8b3bff7d569cf9695ad2f053c000732a10a9b2bebef36b04b9d8701db",
      "transactionIndex": "0x46",
      "blockHash": "0x01d2de60bea1c167e6c5ce47104d5c840dbebb5e3cd1cc5ba81ecd6b487fd172",
      "blockNumber": "0x4361cc1",
      "gasUsed": "0x1dd616",
      "effectiveGasPrice": "0x2faf080",
      "from": "0xa1a629d832972db3b84a4f5fa42d50eff7c8f8de",
      "to": null,
      "contractAddress": "0xc8e53edebd040e8d9d194082fc2cbc67465e9c7c"
    },
    {
      "status": "0x1",
      "cumulativeGasUsed": "0xec8c7e",
      "logs": [
        {
          "address": "0xc8e53edebd040e8d9d194082fc2cbc67465e9c7c",
          "topics": [
            "0x8be0079c531659141344cd1fd0a4f28419497f9722a3daafe3b4186f6b6457e0",
            "0x0000000000000000000000000000000000000000000000000000000000000000",
            "0x000000000000000000000000a1a629d832972db3b84a4f5fa42d50eff7c8f8de"
          ],
          "data": "0x",
          "blockHash": "0x01d2de60bea1c167e6c5ce47104d5c840dbebb5e3cd1cc5ba81ecd6b487fd172",
          "blockNumber": "0x4361cc1",
          "blockTimestamp": "0x6933a822",
          "transactionHash": "0xbd2a0b803383282997044fc535cef54c0034713e60478b9914ec315c733830a5",
          "transactionIndex": "0x47",
          "logIndex": "0x1b1",
          "removed": false
        },
        {
          "address": "0xd7deb29ddbb13607375ce50405a574ac2f7d978d",
          "topics": [
            "0xddf252ad1be2c89b69c2b068fc378daa952ba7f163c4a11628f55a4df523b3ef",
            "0x0000000000000000000000000000000000000000000000000000000000000000",
            "0x000000000000000000000000c8e53edebd040e8d9d194082fc2cbc67465e9c7c",
            "0x0000000000000000000000000000000000000000000000000000000000000007"
          ],
          "data": "0x",
          "blockHash": "0x01d2de60bea1c167e6c5ce47104d5c840dbebb5e3cd1cc5ba81ecd6b487fd172",
          "blockNumber": "0x4361cc1",
          "blockTimestamp": "0x6933a822",
          "transactionHash": "0xbd2a0b803383282997044fc535cef54c0034713e60478b9914ec315c733830a5",
          "transactionIndex": "0x47",
          "logIndex": "0x1b2",
          "removed": false
        },
        {
          "address": "0xd7deb29ddbb13607375ce50405a574ac2f7d978d",
          "topics": [
            "0xf8e1a15aba9398e019f0b49df1a4fde98ee17ae345cb5f6b5e2c27f5033e8ce7"
          ],
          "data": "0x0000000000000000000000000000000000000000000000000000000000000007",
          "blockHash": "0x01d2de60bea1c167e6c5ce47104d5c840dbebb5e3cd1cc5ba81ecd6b487fd172",
          "blockNumber": "0x4361cc1",
          "blockTimestamp": "0x6933a822",
          "transactionHash": "0xbd2a0b803383282997044fc535cef54c0034713e60478b9914ec315c733830a5",
          "transactionIndex": "0x47",
          "logIndex": "0x1b3",
          "removed": false
        },
        {
          "address": "0xd7deb29ddbb13607375ce50405a574ac2f7d978d",
          "topics": [
            "0x19cbbad03ed58e19c069e99cbc146a5c6ccf0e56c2a09edcfcd8dd2d543845f9",
            "0x0000000000000000000000000000000000000000000000000000000000000007",
            "0x000000000000000000000000c8e53edebd040e8d9d194082fc2cbc67465e9c7c"
          ],
          "data": "0x00000000000000000000000000000000000000000000000000000000000000000000000000000000000000000000000000000000000000000000000000000040000000000000000000000000000000000000000000000000000000000000005068747470733a2f2f676174657761792e70696e6174612e636c6f75642f697066732f516d6451483368694a6a486347435067586f6442754b6d5a644b756154773764424c47546657556b6376436f6f4100000000000000000000000000000000",
          "blockHash": "0x01d2de60bea1c167e6c5ce47104d5c840dbebb5e3cd1cc5ba81ecd6b487fd172",
          "blockNumber": "0x4361cc1",
          "blockTimestamp": "0x6933a822",
          "transactionHash": "0xbd2a0b803383282997044fc535cef54c0034713e60478b9914ec315c733830a5",
          "transactionIndex": "0x47",
          "logIndex": "0x1b4",
          "removed": false
        },
        {
          "address": "0xd7deb29ddbb13607375ce50405a574ac2f7d978d",
          "topics": [
            "0xddf252ad1be2c89b69c2b068fc378daa952ba7f163c4a11628f55a4df523b3ef",
            "0x0000000000000000000000000000000000000000000000000000000000000000",
            "0x000000000000000000000000c8e53edebd040e8d9d194082fc2cbc67465e9c7c",
            "0x0000000000000000000000000000000000000000000000000000000000000008"
          ],
          "data": "0x",
          "blockHash": "0x01d2de60bea1c167e6c5ce47104d5c840dbebb5e3cd1cc5ba81ecd6b487fd172",
          "blockNumber": "0x4361cc1",
          "blockTimestamp": "0x6933a822",
          "transactionHash": "0xbd2a0b803383282997044fc535cef54c0034713e60478b9914ec315c733830a5",
          "transactionIndex": "0x47",
          "logIndex": "0x1b5",
          "removed": false
        },
        {
          "address": "0xd7deb29ddbb13607375ce50405a574ac2f7d978d",
          "topics": [
            "0xf8e1a15aba9398e019f0b49df1a4fde98ee17ae345cb5f6b5e2c27f5033e8ce7"
          ],
          "data": "0x0000000000000000000000000000000000000000000000000000000000000008",
          "blockHash": "0x01d2de60bea1c167e6c5ce47104d5c840dbebb5e3cd1cc5ba81ecd6b487fd172",
          "blockNumber": "0x4361cc1",
          "blockTimestamp": "0x6933a822",
          "transactionHash": "0xbd2a0b803383282997044fc535cef54c0034713e60478b9914ec315c733830a5",
          "transactionIndex": "0x47",
          "logIndex": "0x1b6",
          "removed": false
        },
        {
          "address": "0xd7deb29ddbb13607375ce50405a574ac2f7d978d",
          "topics": [
            "0x19cbbad03ed58e19c069e99cbc146a5c6ccf0e56c2a09edcfcd8dd2d543845f9",
            "0x0000000000000000000000000000000000000000000000000000000000000008",
            "0x000000000000000000000000c8e53edebd040e8d9d194082fc2cbc67465e9c7c"
          ],
          "data": "0x00000000000000000000000000000000000000000000000000000000000000000000000000000000000000000000000000000000000000000000000000000040000000000000000000000000000000000000000000000000000000000000005068747470733a2f2f676174657761792e70696e6174612e636c6f75642f697066732f516d6451483368694a6a486347435067586f6442754b6d5a644b756154773764424c47546657556b6376436f6f4100000000000000000000000000000000",
          "blockHash": "0x01d2de60bea1c167e6c5ce47104d5c840dbebb5e3cd1cc5ba81ecd6b487fd172",
          "blockNumber": "0x4361cc1",
          "blockTimestamp": "0x6933a822",
          "transactionHash": "0xbd2a0b803383282997044fc535cef54c0034713e60478b9914ec315c733830a5",
          "transactionIndex": "0x47",
          "logIndex": "0x1b7",
          "removed": false
        },
        {
          "address": "0xd7deb29ddbb13607375ce50405a574ac2f7d978d",
          "topics": [
            "0xddf252ad1be2c89b69c2b068fc378daa952ba7f163c4a11628f55a4df523b3ef",
            "0x0000000000000000000000000000000000000000000000000000000000000000",
            "0x000000000000000000000000c8e53edebd040e8d9d194082fc2cbc67465e9c7c",
            "0x0000000000000000000000000000000000000000000000000000000000000009"
          ],
          "data": "0x",
          "blockHash": "0x01d2de60bea1c167e6c5ce47104d5c840dbebb5e3cd1cc5ba81ecd6b487fd172",
          "blockNumber": "0x4361cc1",
          "blockTimestamp": "0x6933a822",
          "transactionHash": "0xbd2a0b803383282997044fc535cef54c0034713e60478b9914ec315c733830a5",
          "transactionIndex": "0x47",
          "logIndex": "0x1b8",
          "removed": false
        },
        {
          "address": "0xd7deb29ddbb13607375ce50405a574ac2f7d978d",
          "topics": [
            "0xf8e1a15aba9398e019f0b49df1a4fde98ee17ae345cb5f6b5e2c27f5033e8ce7"
          ],
          "data": "0x0000000000000000000000000000000000000000000000000000000000000009",
          "blockHash": "0x01d2de60bea1c167e6c5ce47104d5c840dbebb5e3cd1cc5ba81ecd6b487fd172",
          "blockNumber": "0x4361cc1",
          "blockTimestamp": "0x6933a822",
          "transactionHash": "0xbd2a0b803383282997044fc535cef54c0034713e60478b9914ec315c733830a5",
          "transactionIndex": "0x47",
          "logIndex": "0x1b9",
          "removed": false
        },
        {
          "address": "0xd7deb29ddbb13607375ce50405a574ac2f7d978d",
          "topics": [
            "0x19cbbad03ed58e19c069e99cbc146a5c6ccf0e56c2a09edcfcd8dd2d543845f9",
            "0x0000000000000000000000000000000000000000000000000000000000000009",
            "0x000000000000000000000000c8e53edebd040e8d9d194082fc2cbc67465e9c7c"
          ],
          "data": "0x00000000000000000000000000000000000000000000000000000000000000000000000000000000000000000000000000000000000000000000000000000040000000000000000000000000000000000000000000000000000000000000005068747470733a2f2f676174657761792e70696e6174612e636c6f75642f697066732f516d6451483368694a6a486347435067586f6442754b6d5a644b756154773764424c47546657556b6376436f6f4100000000000000000000000000000000",
          "blockHash": "0x01d2de60bea1c167e6c5ce47104d5c840dbebb5e3cd1cc5ba81ecd6b487fd172",
          "blockNumber": "0x4361cc1",
          "blockTimestamp": "0x6933a822",
          "transactionHash": "0xbd2a0b803383282997044fc535cef54c0034713e60478b9914ec315c733830a5",
          "transactionIndex": "0x47",
          "logIndex": "0x1ba",
          "removed": false
        },
        {
          "address": "0xc8e53edebd040e8d9d194082fc2cbc67465e9c7c",
          "topics": [
            "0xc7f505b2f371ae2175ee4913f4499e1f2633a7b5936321eed1cdaeb6115181d2"
          ],
          "data": "0x0000000000000000000000000000000000000000000000000000000000000001",
          "blockHash": "0x01d2de60bea1c167e6c5ce47104d5c840dbebb5e3cd1cc5ba81ecd6b487fd172",
          "blockNumber": "0x4361cc1",
          "blockTimestamp": "0x6933a822",
          "transactionHash": "0xbd2a0b803383282997044fc535cef54c0034713e60478b9914ec315c733830a5",
          "transactionIndex": "0x47",
          "logIndex": "0x1bb",
          "removed": false
        }
      ],
      "logsBloom": "0x00000000000000000000000000000000000020000000000000800000000000000000000000000000000000000000000002001000000080000000000000200000010020000000000000000008000000000001000000000000000000000010000000000000020000000000000010000800000000000000000000000010000000400082000000020000000800000000000000001000000180000000000000000000000000000000000000004000000000002000000010010000000000000000008040000002000200000000000000000000200000000004000000000100040020000000000000000000200000000000000000000000000000000000000000800000",
      "type": "0x2",
      "transactionHash": "0xbd2a0b803383282997044fc535cef54c0034713e60478b9914ec315c733830a5",
      "transactionIndex": "0x47",
      "blockHash": "0x01d2de60bea1c167e6c5ce47104d5c840dbebb5e3cd1cc5ba81ecd6b487fd172",
      "blockNumber": "0x4361cc1",
      "gasUsed": "0x18492b",
      "effectiveGasPrice": "0x2faf080",
      "from": "0xa1a629d832972db3b84a4f5fa42d50eff7c8f8de",
      "to": "0xc8e53edebd040e8d9d194082fc2cbc67465e9c7c",
      "contractAddress": null
    },
    {
      "status": "0x1",
      "cumulativeGasUsed": "0xed40bd",
      "logs": [],
      "logsBloom": "0x00000000000000000000000000000000000000000000000000000000000000000000000000000000000000000000000000000000000000000000000000000000000000000000000000000000000000000000000000000000000000000000000000000000000000000000000000000000000000000000000000000000000000000000000000000000000000000000000000000000000000000000000000000000000000000000000000000000000000000000000000000000000000000000000000000000000000000000000000000000000000000000000000000000000000000000000000000000000000000000000000000000000000000000000000000000",
      "type": "0x2",
      "transactionHash": "0x70a9d7ae8eda4cbc540814878808cd6f4f80fa442e46104f97232c00a5937191",
      "transactionIndex": "0x48",
      "blockHash": "0x01d2de60bea1c167e6c5ce47104d5c840dbebb5e3cd1cc5ba81ecd6b487fd172",
      "blockNumber": "0x4361cc1",
      "gasUsed": "0xb43f",
      "effectiveGasPrice": "0x2faf080",
      "from": "0xa1a629d832972db3b84a4f5fa42d50eff7c8f8de",
      "to": "0xc8e53edebd040e8d9d194082fc2cbc67465e9c7c",
      "contractAddress": null
    },
    {
      "status": "0x1",
      "cumulativeGasUsed": "0xfab3cb",
      "logs": [
        {
          "address": "0xf029745dc04256b57659b10099f22b26cbbcf08d",
          "topics": [
            "0x3d0ce9bfc3ed7d6862dbb28b2dea94561fe714a1b4d019aa8af39730d1ad7c3d",
            "0x000000000000000000000000d7deb29ddbb13607375ce50405a574ac2f7d978d"
          ],
          "data": "0x000000000000000000000000000000000000000000000000002386f26fc10000",
          "blockHash": "0x01d2de60bea1c167e6c5ce47104d5c840dbebb5e3cd1cc5ba81ecd6b487fd172",
          "blockNumber": "0x4361cc1",
          "blockTimestamp": "0x6933a822",
          "transactionHash": "0x374985b2e44e713f6a557f10176b7f7b8b6eeda1cb648b903f6823c0971c0b30",
          "transactionIndex": "0x49",
          "logIndex": "0x1bc",
          "removed": false
        },
        {
          "address": "0xd7deb29ddbb13607375ce50405a574ac2f7d978d",
          "topics": [
            "0xddf252ad1be2c89b69c2b068fc378daa952ba7f163c4a11628f55a4df523b3ef",
            "0x0000000000000000000000000000000000000000000000000000000000000000",
            "0x000000000000000000000000a1a629d832972db3b84a4f5fa42d50eff7c8f8de",
            "0x000000000000000000000000000000000000000000000000000000000000000a"
          ],
          "data": "0x",
          "blockHash": "0x01d2de60bea1c167e6c5ce47104d5c840dbebb5e3cd1cc5ba81ecd6b487fd172",
          "blockNumber": "0x4361cc1",
          "blockTimestamp": "0x6933a822",
          "transactionHash": "0x374985b2e44e713f6a557f10176b7f7b8b6eeda1cb648b903f6823c0971c0b30",
          "transactionIndex": "0x49",
          "logIndex": "0x1bd",
          "removed": false
        },
        {
          "address": "0xd7deb29ddbb13607375ce50405a574ac2f7d978d",
          "topics": [
            "0xf8e1a15aba9398e019f0b49df1a4fde98ee17ae345cb5f6b5e2c27f5033e8ce7"
          ],
          "data": "0x000000000000000000000000000000000000000000000000000000000000000a",
          "blockHash": "0x01d2de60bea1c167e6c5ce47104d5c840dbebb5e3cd1cc5ba81ecd6b487fd172",
          "blockNumber": "0x4361cc1",
          "blockTimestamp": "0x6933a822",
          "transactionHash": "0x374985b2e44e713f6a557f10176b7f7b8b6eeda1cb648b903f6823c0971c0b30",
          "transactionIndex": "0x49",
          "logIndex": "0x1be",
          "removed": false
        },
        {
          "address": "0xd7deb29ddbb13607375ce50405a574ac2f7d978d",
          "topics": [
            "0x19cbbad03ed58e19c069e99cbc146a5c6ccf0e56c2a09edcfcd8dd2d543845f9",
            "0x000000000000000000000000000000000000000000000000000000000000000a",
            "0x000000000000000000000000a1a629d832972db3b84a4f5fa42d50eff7c8f8de"
          ],
          "data": "0x000000000000000000000000c8e53edebd040e8d9d194082fc2cbc67465e9c7c0000000000000000000000000000000000000000000000000000000000000040000000000000000000000000000000000000000000000000000000000000005068747470733a2f2f676174657761792e70696e6174612e636c6f75642f697066732f516d6451483368694a6a486347435067586f6442754b6d5a644b756154773764424c47546657556b6376436f6f4100000000000000000000000000000000",
          "blockHash": "0x01d2de60bea1c167e6c5ce47104d5c840dbebb5e3cd1cc5ba81ecd6b487fd172",
          "blockNumber": "0x4361cc1",
          "blockTimestamp": "0x6933a822",
          "transactionHash": "0x374985b2e44e713f6a557f10176b7f7b8b6eeda1cb648b903f6823c0971c0b30",
          "transactionIndex": "0x49",
          "logIndex": "0x1bf",
          "removed": false
        },
        {
          "address": "0xc8e53edebd040e8d9d194082fc2cbc67465e9c7c",
          "topics": [
            "0x19cbbad03ed58e19c069e99cbc146a5c6ccf0e56c2a09edcfcd8dd2d543845f9",
            "0x000000000000000000000000000000000000000000000000000000000000000a",
            "0x000000000000000000000000a1a629d832972db3b84a4f5fa42d50eff7c8f8de"
          ],
          "data": "0x0000000000000000000000009a6dfbcf0ba03f49f21ddad0e12fade1a7def7fc0000000000000000000000000000000000000000000000000000000000000040000000000000000000000000000000000000000000000000000000000000005068747470733a2f2f676174657761792e70696e6174612e636c6f75642f697066732f516d6451483368694a6a486347435067586f6442754b6d5a644b756154773764424c47546657556b6376436f6f4100000000000000000000000000000000",
          "blockHash": "0x01d2de60bea1c167e6c5ce47104d5c840dbebb5e3cd1cc5ba81ecd6b487fd172",
          "blockNumber": "0x4361cc1",
          "blockTimestamp": "0x6933a822",
          "transactionHash": "0x374985b2e44e713f6a557f10176b7f7b8b6eeda1cb648b903f6823c0971c0b30",
          "transactionIndex": "0x49",
          "logIndex": "0x1c0",
          "removed": false
        }
      ],
      "logsBloom": "0x00000000000000000000000000000000000020000000000000000000000000000000000000000000000000000000000002000000040000000020000000000000010000000000004000000008000000000001000000000000000000000010000000040000020000000000000010000801000000000000000000000010000000000000000800020040010000000400000000000000000100000000000000000000000000000000000000000040000000002000000010010010000000000000008000000002000200000000000000000000000000000000000000000000040020000000000000000000200000800000000000000000000000000000000000000000",
      "type": "0x2",
      "transactionHash": "0x374985b2e44e713f6a557f10176b7f7b8b6eeda1cb648b903f6823c0971c0b30",
      "transactionIndex": "0x49",
      "blockHash": "0x01d2de60bea1c167e6c5ce47104d5c840dbebb5e3cd1cc5ba81ecd6b487fd172",
      "blockNumber": "0x4361cc1",
      "gasUsed": "0xd730e",
      "effectiveGasPrice": "0x2faf080",
      "from": "0xa1a629d832972db3b84a4f5fa42d50eff7c8f8de",
      "to": "0xc8e53edebd040e8d9d194082fc2cbc67465e9c7c",
      "contractAddress": null
    },
    {
      "status": "0x1",
      "cumulativeGasUsed": "0xfd24fc",
      "logs": [
        {
          "address": "0xc8e53edebd040e8d9d194082fc2cbc67465e9c7c",
          "topics": [
            "0xd8ef40481e78617a5bacf7e4566fbb16a8ab0f264fa4ab74220c3524af42c13c",
            "0x13e2e72b332c0b74aa9960f37b64173eef86147ea900632c3cdbcd56186af465",
            "0x0000000000000000000000009a6dfbcf0ba03f49f21ddad0e12fade1a7def7fc"
          ],
          "data": "0x0000000000000000000000000000000000000000000000000000000000000001",
          "blockHash": "0x01d2de60bea1c167e6c5ce47104d5c840dbebb5e3cd1cc5ba81ecd6b487fd172",
          "blockNumber": "0x4361cc1",
          "blockTimestamp": "0x6933a822",
          "transactionHash": "0xa8a83aabe5bc606597e065cca1a5c65aaf9726afe8d7db81a2ffc1f003fe92f9",
          "transactionIndex": "0x4a",
          "logIndex": "0x1c1",
          "removed": false
        }
      ],
      "logsBloom": "0x00000000000000000000000000000000000000000000000000000000000000000000000000000000000000000000000000000000000000000000000000000000000080000000000000000000040000200000000000000000000000000010000000000000000000000000000000000000000000000000000000000000002000000000000000000000000000000000000000000200000000000000000000000000000000000000000000000000020000000000000000010000000000000000000000000000000200000000000000000000000000000000000000000000000000000000000000000800000000000000000000000000008000000000000000000800",
      "type": "0x2",
      "transactionHash": "0xa8a83aabe5bc606597e065cca1a5c65aaf9726afe8d7db81a2ffc1f003fe92f9",
      "transactionIndex": "0x4a",
      "blockHash": "0x01d2de60bea1c167e6c5ce47104d5c840dbebb5e3cd1cc5ba81ecd6b487fd172",
      "blockNumber": "0x4361cc1",
      "gasUsed": "0x27131",
      "effectiveGasPrice": "0x2faf080",
      "from": "0xa1a629d832972db3b84a4f5fa42d50eff7c8f8de",
      "to": "0xc8e53edebd040e8d9d194082fc2cbc67465e9c7c",
      "contractAddress": null
    },
    {
      "status": "0x1",
      "cumulativeGasUsed": "0xff0599",
      "logs": [
        {
          "address": "0xc8e53edebd040e8d9d194082fc2cbc67465e9c7c",
          "topics": [
            "0xd8ef40481e78617a5bacf7e4566fbb16a8ab0f264fa4ab74220c3524af42c13c",
            "0x82343456fbbce1c6335308817aa60da4f8c082d3d27dfcec70271950142b2aeb",
            "0x0000000000000000000000009a6dfbcf0ba03f49f21ddad0e12fade1a7def7fc"
          ],
          "data": "0x0000000000000000000000000000000000000000000000000000000000000000",
          "blockHash": "0x01d2de60bea1c167e6c5ce47104d5c840dbebb5e3cd1cc5ba81ecd6b487fd172",
          "blockNumber": "0x4361cc1",
          "blockTimestamp": "0x6933a822",
          "transactionHash": "0x072aa997f99b314e5e2abd877665da4a90d7c24364f75731cd4bdec91b29fc24",
          "transactionIndex": "0x4b",
          "logIndex": "0x1c2",
          "removed": false
        }
      ],
      "logsBloom": "0x00000000000000000000000000000000000000000000000000000000000000000000000000000000020000000000000000000000000000000000000000000000000080000000000000000000040000000000000000000000000000000010000000000000000000000000000000000000000000000000000000000000000000020000000000000000000000000000000000000200000000000000000000000000040000000000000000000000020000000000000000010000000000000000000000000000000200000000000000000000000000000000000000000000000000000000000000000800000000000000000000000000000000000000000000000800",
      "type": "0x2",
      "transactionHash": "0x072aa997f99b314e5e2abd877665da4a90d7c24364f75731cd4bdec91b29fc24",
      "transactionIndex": "0x4b",
      "blockHash": "0x01d2de60bea1c167e6c5ce47104d5c840dbebb5e3cd1cc5ba81ecd6b487fd172",
      "blockNumber": "0x4361cc1",
      "gasUsed": "0x1e09d",
      "effectiveGasPrice": "0x2faf080",
      "from": "0xa1a629d832972db3b84a4f5fa42d50eff7c8f8de",
      "to": "0xc8e53edebd040e8d9d194082fc2cbc67465e9c7c",
      "contractAddress": null
    }
  ],
  "libraries": [],
  "pending": [],
  "returns": {},
  "timestamp": 1764993060114,
  "chain": 56,
  "commit": "7279c49"
}