{
  "transactions": [
    {
      "hash": "0x02389a0e214f7c0570e4a9b974c47a211910b72a5481d01d00d95463fdfb7eed",
      "transactionType": "CREATE",
      "contractName": "AgentLaunchpad",
      "contractAddress": "0x30a881d092e67c3ff604e1a85c2a7a0019c78741",
      "function": null,
      "arguments": null,
      "transaction": {
        "from": "0xa1a629d832972db3b84a4f5fa42d50eff7c8f8de",
        "gas": "0x274622",
        "value": "0x0",
        "input": "0x6080604052348015600e575f5ffd5b506122d28061001c5f395ff3fe60806040526004361061011b575f3560e01c80639d8669851161009d578063d90667c011610062578063d90667c0146103f1578063de1164bb14610404578063f2fde38b14610423578063f3a7093914610442578063feb9915714610461575f5ffd5b80639d866985146102e6578063a65497c614610348578063c356e2d414610367578063c952de3914610389578063cece8f98146103bd575f5ffd5b806364edfad5116100e357806364edfad51461021c578063715018a61461024b578063720d17601461025f57806374e12a861461028b5780638da5cb5b146102aa575f5ffd5b8063150b7a021461011f5780631ffbb064146101675780633fd773e9146101a5578063485cc955146101dc5780635f8db941146101fd575b5f5ffd5b34801561012a575f5ffd5b506101496101393660046117a3565b630a85bd0160e11b949350505050565b6040516001600160e01b031990911681526020015b60405180910390f35b348015610172575f5ffd5b50610195610181366004611806565b60076020525f908152604090205460ff1681565b604051901515815260200161015e565b3480156101b0575f5ffd5b506002546101c4906001600160a01b031681565b6040516001600160a01b03909116815260200161015e565b3480156101e7575f5ffd5b506101fb6101f636600461181f565b610480565b005b348015610208575f5ffd5b506101fb610217366004611850565b6107dc565b348015610227575f5ffd5b5061023b6102363660046118aa565b6109e5565b60405161015e94939291906118ef565b348015610256575f5ffd5b506101fb610b26565b34801561026a575f5ffd5b5061027e6102793660046118aa565b610b39565b60405161015e9190611937565b348015610296575f5ffd5b5061027e6102a53660046118aa565b610bd0565b3480156102b5575f5ffd5b507f9016d09d72d40fdae2fd8ceac6b6234c7706214fd39c1cd1e609a0528c199300546001600160a01b03166101c4565b3480156102f1575f5ffd5b506103386103003660046118aa565b60046020525f90815260409020805460018201546002909201546001600160a01b039182169291821691600160a01b900460ff169084565b60405161015e949392919061197d565b348015610353575f5ffd5b506101fb610362366004611806565b610be8565b348015610372575f5ffd5b5061037b610c12565b60405161015e9291906119b1565b348015610394575f5ffd5b506101c46103a3366004611806565b60096020525f90815260409020546001600160a01b031681565b3480156103c8575f5ffd5b506101c46103d7366004611806565b60086020525f90815260409020546001600160a01b031681565b6101c46103ff366004611a6c565b610d5f565b34801561040f575f5ffd5b506003546101c4906001600160a01b031681565b34801561042e575f5ffd5b506101fb61043d366004611806565b611068565b34801561044d575f5ffd5b506101fb61045c366004611b31565b6110a5565b34801561046c575f5ffd5b506101fb61047b366004611b74565b611250565b5f6104896113db565b805490915060ff600160401b82041615906001600160401b03165f811580156104af5750825b90505f826001600160401b031660011480156104ca5750303b155b9050811580156104d8575080155b156104f65760405163f92ee8a960e01b815260040160405180910390fd5b845467ffffffffffffffff19166001178555831561052057845460ff60401b1916600160401b1785555b61052987611405565b600280546001600160a01b0319166001600160a01b038816178155604080516101008101825260c08101928352617b7d60f01b60e082015291825280518082018252601081526f44756d6d7920457870657269656e636560801b60208083019190915280840191909152815180820183525f8082528484019190915282518084018452601a81527f697066733a2f2f516d4167656e74416e696d6174696f6e3435360000000000008184015260608501528251608081810190945260508082529194938401929091906121fd908301398152602001617b7d60f01b5f1b81525090505f60405180608001604052806050815260200161224d60509139600254604051636a41564f60e01b81529192506001600160a01b031690636a41564f9061065c9030905f9086908890600401611b9c565b6020604051808303815f875af1158015610678573d5f5f3e3d5ffd5b505050506040513d601f19601f8201168201806040525081019061069c9190611c64565b50600254604051636a41564f60e01b81526001600160a01b0390911690636a41564f906106d39030905f9086908890600401611b9c565b6020604051808303815f875af11580156106ef573d5f5f3e3d5ffd5b505050506040513d601f19601f820116820180604052508101906107139190611c64565b50600254604051636a41564f60e01b81526001600160a01b0390911690636a41564f9061074a9030905f9086908890600401611b9c565b6020604051808303815f875af1158015610766573d5f5f3e3d5ffd5b505050506040513d601f19601f8201168201806040525081019061078a9190611c64565b50505083156107d357845460ff60401b19168555604051600181527fc7f505b2f371ae2175ee4913f4499e1f2633a7b5936321eed1cdaeb6115181d29060200160405180910390a15b50505050505050565b6003546001600160a01b0316331461082c5760405162461bcd60e51b815260206004820152600e60248201526d139bdd08185d5d1a1bdc9a5e995960921b60448201526064015b60405180910390fd5b60015f85815260046020526040902060010154600160a01b900460ff16600281111561085a5761085a611949565b1461089b5760405162461bcd60e51b815260206004820152601160248201527014995c5d595cdd081b9bdd08199bdd5b99607a1b6044820152606401610823565b5f84815260046020526040902060020154156108ed5760405162461bcd60e51b8152602060048201526011602482015270125b9d985b1a59081858dd1a5bdb881251607a1b6044820152606401610823565b5f848152600460205260408120600101805460ff60a01b1916600160a11b1790556109189085611416565b505f84815260046020819052604091829020549151632d46ea4960e01b81526001600160a01b0390921691632d46ea49916109599187918791879101611c7b565b5f604051808303815f87803b158015610970575f5ffd5b505af1158015610982573d5f5f3e3d5ffd5b5050505f85815260046020526040908190205490516001600160a01b03909116915085907f5fdc54a6afcfc7e1955de8290835b83327283d125bfd8b881c0adc97a3bc21ab906109d790869088908790611cae565b60405180910390a350505050565b600a6020525f90815260409020805460018201546002830180546001600160a01b03938416949290931692610a1990611cdb565b80601f0160208091040260200160405190810160405280929190818152602001828054610a4590611cdb565b8015610a905780601f10610a6757610100808354040283529160200191610a90565b820191905f5260205f20905b815481529060010190602001808311610a7357829003601f168201915b505050505090806003018054610aa590611cdb565b80601f0160208091040260200160405190810160405280929190818152602001828054610ad190611cdb565b8015610b1c5780601f10610af357610100808354040283529160200191610b1c565b820191905f5260205f20905b815481529060010190602001808311610aff57829003601f168201915b5050505050905084565b610b2e611428565b610b375f611483565b565b60056020525f908152604090208054610b5190611cdb565b80601f0160208091040260200160405190810160405280929190818152602001828054610b7d90611cdb565b8015610bc85780601f10610b9f57610100808354040283529160200191610bc8565b820191905f5260205f20905b815481529060010190602001808311610bab57829003601f168201915b505050505081565b60066020525f908152604090208054610b5190611cdb565b610bf0611428565b600380546001600160a01b0319166001600160a01b0392909216919091179055565b6060805f610c1f5f6114f3565b90505f81516001600160401b03811115610c3b57610c3b611700565b604051908082528060200260200182016040528015610c8b57816020015b604080516080810182525f8082526020808301829052928201819052606082015282525f19909201910181610c595790505b5090505f5b8251811015610d555760045f848381518110610cae57610cae611d13565b60209081029190910181015182528181019290925260409081015f20815160808101835281546001600160a01b039081168252600183015490811694820194909452929091830190600160a01b900460ff166002811115610d1157610d11611949565b6002811115610d2257610d22611949565b8152602001600282015481525050828281518110610d4257610d42611d13565b6020908102919091010152600101610c90565b5090939092509050565b5f5f60405180608001604052806050815260200161224d6050913990505f6040518060c0016040528086815260200185815260200160405180602001604052805f81525081526020016040518060400160405280601a81526020017f697066733a2f2f516d4167656e74416e696d6174696f6e34353600000000000081525081526020016040518060800160405280605081526020016121fd605091398152602001617b7d60f01b5f1b815250905030604051610e1b906116d8565b6001600160a01b039091168152602001604051809103905ff080158015610e44573d5f5f3e3d5ffd5b506001600160a01b038082165f818152600760209081526040808320805460ff191660011790558d85168084526008835281842080546001600160a01b03199081168717909155948452600990925280832080549094169091179092556002549151636a41564f60e01b815293965092911690636a41564f90662386f26fc1000090610eda903390309089908990600401611b9c565b60206040518083038185885af1158015610ef6573d5f5f3e3d5ffd5b50505050506040513d601f19601f82011682018060405250810190610f1b9190611c64565b604080516080810182523381526001600160a01b038c811660208084019182528385018e8152606085018e90525f878152600a909252949020835181549084166001600160a01b03199182161782559151600182018054919094169216919091179091559151929350916002820190610f949082611d73565b5060608201516003820190610fa99082611d73565b505050662386f26fc10000341115611018576001600160a01b038416610fd6662386f26fc1000034611e2d565b6040515f81818185875af1925050503d805f811461100f576040519150601f19603f3d011682016040523d82523d5f602084013e611014565b606091505b5050505b336001600160a01b0316817f19cbbad03ed58e19c069e99cbc146a5c6ccf0e56c2a09edcfcd8dd2d543845f98686604051611054929190611e4c565b60405180910390a350505095945050505050565b611070611428565b6001600160a01b03811661109957604051631e4fbdf760e01b81525f6004820152602401610823565b6110a281611483565b50565b6003546001600160a01b031633146110f05760405162461bcd60e51b815260206004820152600e60248201526d139bdd08185d5d1a1bdc9a5e995960921b6044820152606401610823565b60015f83815260046020526040902060010154600160a01b900460ff16600281111561111e5761111e611949565b1461115f5760405162461bcd60e51b815260206004820152601160248201527014995c5d595cdd081b9bdd08199bdd5b99607a1b6044820152606401610823565b5f828152600460205260409020600201546001146111b35760405162461bcd60e51b8152602060048201526011602482015270125b9d985b1a59081858dd1a5bdb881251607a1b6044820152606401610823565b5f828152600460205260408120600101805460ff60a01b1916600160a11b1790556111de9083611416565b505f8281526006602052604090206111f68282611d73565b505f82815260046020526040908190205490516001600160a01b039091169083907fd002c90bd2d3b2a335fcc666639da3fa6e58dcf58157533c0019997bf8b319b390611244908590611937565b60405180910390a35050565b6001600160a01b038281165f90815260086020526040902054166112a85760405162461bcd60e51b815260206004820152600f60248201526e1059d95b9d081b9bdd08199bdd5b99608a1b6044820152606401610823565b6001600160a01b038281165f908152600860209081526040808320548151941691840182905283018490524260608401529160800160408051808303601f1901815282825280516020918201206080840183526001600160a01b0388811685528681168386019081526001868601818152606088018b90525f858152600490965295909420865181549084166001600160a01b03199182161782559151948101805495909316918516821783559451929650919290916001600160a81b031990911617600160a01b83600281111561138257611382611949565b02179055506060919091015160029091015561139e5f826114ff565b50816001600160a01b0316817fd8ef40481e78617a5bacf7e4566fbb16a8ab0f264fa4ab74220c3524af42c13c856040516109d791815260200190565b5f807ff0c57e16840df040f15088dc2f81fe391c3923bec73e23a9662efc9c229c6a005b92915050565b61140d61150a565b6110a28161152f565b5f6114218383611537565b9392505050565b3361145a7f9016d09d72d40fdae2fd8ceac6b6234c7706214fd39c1cd1e609a0528c199300546001600160a01b031690565b6001600160a01b031614610b375760405163118cdaa760e01b8152336004820152602401610823565b7f9016d09d72d40fdae2fd8ceac6b6234c7706214fd39c1cd1e609a0528c19930080546001600160a01b031981166001600160a01b03848116918217845560405192169182907f8be0079c531659141344cd1fd0a4f28419497f9722a3daafe3b4186f6b6457e0905f90a3505050565b60605f6114218361161a565b5f6114218383611673565b6115126116bf565b610b3757604051631afcd79f60e31b815260040160405180910390fd5b61107061150a565b5f8181526001830160205260408120548015611611575f611559600183611e2d565b85549091505f9061156c90600190611e2d565b90508082146115cb575f865f01828154811061158a5761158a611d13565b905f5260205f200154905080875f0184815481106115aa576115aa611d13565b5f918252602080832090910192909255918252600188019052604090208390555b85548690806115dc576115dc611e77565b600190038181905f5260205f20015f90559055856001015f8681526020019081526020015f205f9055600193505050506113ff565b5f9150506113ff565b6060815f0180548060200260200160405190810160405280929190818152602001828054801561166757602002820191905f5260205f20905b815481526020019060010190808311611653575b50505050509050919050565b5f8181526001830160205260408120546116b857508154600181810184555f8481526020808220909301849055845484825282860190935260409020919091556113ff565b505f6113ff565b5f6116c86113db565b54600160401b900460ff16919050565b61037180611e8c83390190565b80356001600160a01b03811681146116fb575f5ffd5b919050565b634e487b7160e01b5f52604160045260245ffd5b5f82601f830112611723575f5ffd5b8135602083015f5f6001600160401b0384111561174257611742611700565b50604051601f19601f85018116603f011681018181106001600160401b038211171561177057611770611700565b604052838152905080828401871015611787575f5ffd5b838360208301375f602085830101528094505050505092915050565b5f5f5f5f608085870312156117b6575f5ffd5b6117bf856116e5565b93506117cd602086016116e5565b92506040850135915060608501356001600160401b038111156117ee575f5ffd5b6117fa87828801611714565b91505092959194509250565b5f60208284031215611816575f5ffd5b611421826116e5565b5f5f60408385031215611830575f5ffd5b611839836116e5565b9150611847602084016116e5565b90509250929050565b5f5f5f5f60808587031215611863575f5ffd5b84359350611873602086016116e5565b925060408501356001600160401b0381111561188d575f5ffd5b61189987828801611714565b949793965093946060013593505050565b5f602082840312156118ba575f5ffd5b5035919050565b5f81518084528060208401602086015e5f602082860101526020601f19601f83011685010191505092915050565b6001600160a01b038581168252841660208201526080604082018190525f9061191a908301856118c1565b828103606084015261192c81856118c1565b979650505050505050565b602081525f61142160208301846118c1565b634e487b7160e01b5f52602160045260245ffd5b6003811061197957634e487b7160e01b5f52602160045260245ffd5b9052565b6001600160a01b03858116825284166020820152608081016119a2604083018561195d565b82606083015295945050505050565b604080825283519082018190525f9060208501906060840190835b818110156119ea5783518352602093840193909201916001016119cc565b5050838103602080860191909152855180835291810192508501905f5b81811015611a6057825180516001600160a01b0390811686526020808301519091169086015260408082015190611a409087018261195d565b506060908101519085015260809093019260209290920191600101611a07565b50919695505050505050565b5f5f5f5f5f60a08688031215611a80575f5ffd5b611a89866116e5565b945060208601356001600160401b03811115611aa3575f5ffd5b611aaf88828901611714565b94505060408601356001600160401b03811115611aca575f5ffd5b611ad688828901611714565b93505060608601356001600160401b03811115611af1575f5ffd5b611afd88828901611714565b92505060808601356001600160401b03811115611b18575f5ffd5b611b2488828901611714565b9150509295509295909350565b5f5f60408385031215611b42575f5ffd5b8235915060208301356001600160401b03811115611b5e575f5ffd5b611b6a85828601611714565b9150509250929050565b5f5f60408385031215611b85575f5ffd5b611b8e836116e5565b946020939093013593505050565b6001600160a01b038581168252841660208201526080604082018190525f90611bc7908301856118c1565b8281036060840152835160c08252611be260c08301826118c1565b905060208501518282036020840152611bfb82826118c1565b91505060408501518282036040840152611c1582826118c1565b91505060608501518282036060840152611c2f82826118c1565b91505060808501518282036080840152611c4982826118c1565b91505060a085015160a0830152809250505095945050505050565b5f60208284031215611c74575f5ffd5b5051919050565b6001600160a01b03841681526060602082018190525f90611c9e908301856118c1565b9050826040830152949350505050565b606081525f611cc060608301866118c1565b6001600160a01b039490941660208301525060400152919050565b600181811c90821680611cef57607f821691505b602082108103611d0d57634e487b7160e01b5f52602260045260245ffd5b50919050565b634e487b7160e01b5f52603260045260245ffd5b601f821115611d6e57805f5260205f20601f840160051c81016020851015611d4c5750805b601f840160051c820191505b81811015611d6b575f8155600101611d58565b50505b505050565b81516001600160401b03811115611d8c57611d8c611700565b611da081611d9a8454611cdb565b84611d27565b6020601f821160018114611dd2575f8315611dbb5750848201515b5f19600385901b1c1916600184901b178455611d6b565b5f84815260208120601f198516915b82811015611e015787850151825560209485019460019092019101611de1565b5084821015611e1e57868401515f19600387901b60f8161c191681555b50505050600190811b01905550565b818103818111156113ff57634e487b7160e01b5f52601160045260245ffd5b6001600160a01b03831681526040602082018190525f90611e6f908301846118c1565b949350505050565b634e487b7160e01b5f52603160045260245ffdfe60a0604052348015600e575f5ffd5b50604051610371380380610371833981016040819052602b91603b565b6001600160a01b03166080526066565b5f60208284031215604a575f5ffd5b81516001600160a01b0381168114605f575f5ffd5b9392505050565b6080516102ee6100835f395f81816047015260b101526102ee5ff3fe60806040526004361061002b575f3560e01c806302669b52146100365780632d46ea4914610085575f5ffd5b3661003257005b5f5ffd5b348015610041575f5ffd5b506100697f000000000000000000000000000000000000000000000000000000000000000081565b6040516001600160a01b03909116815260200160405180910390f35b348015610090575f5ffd5b506100a461009f3660046101c8565b6100a6565b005b336001600160a01b037f000000000000000000000000000000000000000000000000000000000000000016146101145760405162461bcd60e51b815260206004820152600e60248201526d139bdd08185d5d1a1bdc9a5e995960921b60448201526064015b60405180910390fd5b5f836001600160a01b0316828460405161012e91906102a2565b5f6040518083038185875af1925050503d805f8114610168576040519150601f19603f3d011682016040523d82523d5f602084013e61016d565b606091505b50509050806101ae5760405162461bcd60e51b815260206004820152600d60248201526c1058dd1a5bdb8819985a5b1959609a1b604482015260640161010b565b50505050565b634e487b7160e01b5f52604160045260245ffd5b5f5f5f606084860312156101da575f5ffd5b83356001600160a01b03811681146101f0575f5ffd5b9250602084013567ffffffffffffffff81111561020b575f5ffd5b8401601f8101861361021b575f5ffd5b803567ffffffffffffffff811115610235576102356101b4565b604051601f8201601f19908116603f0116810167ffffffffffffffff81118282101715610264576102646101b4565b60405281815282820160200188101561027b575f5ffd5b816020840160208301375f9181016020019190915293969395505050506040919091013590565b5f82518060208501845e5f92019182525091905056fea2646970667358221220c77fcad3af3f2bad07adb8eb36d12f7f305f105374dd9984dd4ea2b93f303acb64736f6c634300081c003368747470733a2f2f676174657761792e70696e6174612e636c6f75642f697066732f516d624a574145537143736634524643714559376a6563436173686a387573586979444e664b745a4377777a476268747470733a2f2f676174657761792e70696e6174612e636c6f75642f697066732f516d6451483368694a6a486347435067586f6442754b6d5a644b756154773764424c47546657556b6376436f6f41a26469706673582212200629f98e05f980f58c83d6f41d49817d3b29c4f891281e2cf4133decf10950bf64736f6c634300081c0033",
        "nonce": "0x5a",
        "chainId": "0x38"
      },
      "additionalContracts": [],
      "isFixedGasLimit": false
    },
    {
      "hash": "0x5fe646f3171aabb83568d28f34bfc1cf77c477cea02a29edf2ec161f6492fd93",
      "transactionType": "CALL",
      "contractName": "AgentLaunchpad",
      "contractAddress": "0x30a881d092e67c3ff604e1a85c2a7a0019c78741",
      "function": "initialize(address,address)",
      "arguments": [
        "0xA1a629d832972DB3b84A4f5Fa42d50eFF7c8F8dE",
        "0xd7Deb29ddBB13607375Ce50405A574AC2f7d978d"
      ],
      "transaction": {
        "from": "0xa1a629d832972db3b84a4f5fa42d50eff7c8f8de",
        "to": "0x30a881d092e67c3ff604e1a85c2a7a0019c78741",
        "gas": "0x23849b",
        "value": "0x0",
        "input": "0x485cc955000000000000000000000000a1a629d832972db3b84a4f5fa42d50eff7c8f8de000000000000000000000000d7deb29ddbb13607375ce50405a574ac2f7d978d",
        "nonce": "0x5b",
        "chainId": "0x38"
      },
      "additionalContracts": [],
      "isFixedGasLimit": false
    },
    {
      "hash": "0x5752dfca910a41e9c88ba7828d118bed294c57b25d5e4914416e9166828a9cdb",
      "transactionType": "CALL",
      "contractName": "AgentLaunchpad",
      "contractAddress": "0x30a881d092e67c3ff604e1a85c2a7a0019c78741",
      "function": "setAVS(address)",
      "arguments": [
        "0xA1a629d832972DB3b84A4f5Fa42d50eFF7c8F8dE"
      ],
      "transaction": {
        "from": "0xa1a629d832972db3b84a4f5fa42d50eff7c8f8de",
        "to": "0x30a881d092e67c3ff604e1a85c2a7a0019c78741",
        "gas": "0xf8f5",
        "value": "0x0",
        "input": "0xa65497c6000000000000000000000000a1a629d832972db3b84a4f5fa42d50eff7c8f8de",
        "nonce": "0x5c",
        "chainId": "0x38"
      },
      "additionalContracts": [],
      "isFixedGasLimit": false
    },
    {
      "hash": "0x552ba46e70928d75285b9583ddad977f1dc4c7d108c712433b0254071799b6a5",
      "transactionType": "CALL",
      "contractName": "AgentLaunchpad",
      "contractAddress": "0x30a881d092e67c3ff604e1a85c2a7a0019c78741",
      "function": "createAgent(address,string,string,string,string)",
      "arguments": [
        "0xe29315aF2cC7e4D69c50A962829B2C122ce94444",
        "Buy 1000 ETH",
        "Buy 1000 ETH",
        "I am a trader",
        "I am a trader"
      ],
      "transaction": {
        "from": "0xa1a629d832972db3b84a4f5fa42d50eff7c8f8de",
        "to": "0x30a881d092e67c3ff604e1a85c2a7a0019c78741",
        "gas": "0x12c8db",
        "value": "0x470de4df820000",
        "input": "0xd90667c0000000000000000000000000e29315af2cc7e4d69c50a962829b2c122ce9444400000000000000000000000000000000000000000000000000000000000000a000000000000000000000000000000000000000000000000000000000000000e000000000000000000000000000000000000000000000000000000000000001200000000000000000000000000000000000000000000000000000000000000160000000000000000000000000000000000000000000000000000000000000000c4275792031303030204554480000000000000000000000000000000000000000000000000000000000000000000000000000000000000000000000000000000c4275792031303030204554480000000000000000000000000000000000000000000000000000000000000000000000000000000000000000000000000000000d4920616d20612074726164657200000000000000000000000000000000000000000000000000000000000000000000000000000000000000000000000000000d4920616d20612074726164657200000000000000000000000000000000000000",
        "nonce": "0x5d",
        "chainId": "0x38"
      },
      "additionalContracts": [
        {
          "transactionType": "CREATE",
          "contractName": "Agent",
          "address": "0xc6f0e3b0cf1edba5555342f02440184fb2ff749d",
          "initCode": "0x60a0604052348015600e575f5ffd5b50604051610371380380610371833981016040819052602b91603b565b6001600160a01b03166080526066565b5f60208284031215604a575f5ffd5b81516001600160a01b0381168114605f575f5ffd5b9392505050565b6080516102ee6100835f395f81816047015260b101526102ee5ff3fe60806040526004361061002b575f3560e01c806302669b52146100365780632d46ea4914610085575f5ffd5b3661003257005b5f5ffd5b348015610041575f5ffd5b506100697f000000000000000000000000000000000000000000000000000000000000000081565b6040516001600160a01b03909116815260200160405180910390f35b348015610090575f5ffd5b506100a461009f3660046101c8565b6100a6565b005b336001600160a01b037f000000000000000000000000000000000000000000000000000000000000000016146101145760405162461bcd60e51b815260206004820152600e60248201526d139bdd08185d5d1a1bdc9a5e995960921b60448201526064015b60405180910390fd5b5f836001600160a01b0316828460405161012e91906102a2565b5f6040518083038185875af1925050503d805f8114610168576040519150601f19603f3d011682016040523d82523d5f602084013e61016d565b606091505b50509050806101ae5760405162461bcd60e51b815260206004820152600d60248201526c1058dd1a5bdb8819985a5b1959609a1b604482015260640161010b565b50505050565b634e487b7160e01b5f52604160045260245ffd5b5f5f5f606084860312156101da575f5ffd5b83356001600160a01b03811681146101f0575f5ffd5b9250602084013567ffffffffffffffff81111561020b575f5ffd5b8401601f8101861361021b575f5ffd5b803567ffffffffffffffff811115610235576102356101b4565b604051601f8201601f19908116603f0116810167ffffffffffffffff81118282101715610264576102646101b4565b60405281815282820160200188101561027b575f5ffd5b816020840160208301375f9181016020019190915293969395505050506040919091013590565b5f82518060208501845e5f92019182525091905056fea2646970667358221220c77fcad3af3f2bad07adb8eb36d12f7f305f105374dd9984dd4ea2b93f303acb64736f6c634300081c003300000000000000000000000030a881d092e67c3ff604e1a85c2a7a0019c78741"
        }
      ],
      "isFixedGasLimit": false
    },
    {
      "hash": "0x9a1f899425d59a4f1118d8fb92ccc7b2daa8fbcce6928f6d2896fa5178df89fe",
      "transactionType": "CALL",
      "contractName": "AgentLaunchpad",
      "contractAddress": "0x30a881d092e67c3ff604e1a85c2a7a0019c78741",
      "function": "sendRequest(address,uint256)",
      "arguments": [
        "0xe29315aF2cC7e4D69c50A962829B2C122ce94444",
        "1"
      ],
      "transaction": {
        "from": "0xa1a629d832972db3b84a4f5fa42d50eff7c8f8de",
        "to": "0x30a881d092e67c3ff604e1a85c2a7a0019c78741",
        "gas": "0x39257",
        "value": "0x0",
        "input": "0xfeb99157000000000000000000000000e29315af2cc7e4d69c50a962829b2c122ce944440000000000000000000000000000000000000000000000000000000000000001",
        "nonce": "0x5e",
        "chainId": "0x38"
      },
      "additionalContracts": [],
      "isFixedGasLimit": false
    },
    {
      "hash": "0x4dc74f2fe3704849e6f7d6207909ec8d0346ac57169f61a1481db9f3c46e150d",
      "transactionType": "CALL",
      "contractName": "AgentLaunchpad",
      "contractAddress": "0x30a881d092e67c3ff604e1a85c2a7a0019c78741",
      "function": "sendRequest(address,uint256)",
      "arguments": [
        "0xe29315aF2cC7e4D69c50A962829B2C122ce94444",
        "0"
      ],
      "transaction": {
        "from": "0xa1a629d832972db3b84a4f5fa42d50eff7c8f8de",
        "to": "0x30a881d092e67c3ff604e1a85c2a7a0019c78741",
        "gas": "0x297d7",
        "value": "0x0",
        "input": "0xfeb99157000000000000000000000000e29315af2cc7e4d69c50a962829b2c122ce944440000000000000000000000000000000000000000000000000000000000000000",
        "nonce": "0x5f",
        "chainId": "0x38"
      },
      "additionalContracts": [],
      "isFixedGasLimit": false
    }
  ],
  "receipts": [
    {
      "status": "0x1",
      "cumulativeGasUsed": "0x10e7f2e",
      "logs": [],
      "logsBloom": "0x00000000000000000000000000000000000000000000000000000000000000000000000000000000000000000000000000000000000000000000000000000000000000000000000000000000000000000000000000000000000000000000000000000000000000000000000000000000000000000000000000000000000000000000000000000000000000000000000000000000000000000000000000000000000000000000000000000000000000000000000000000000000000000000000000000000000000000000000000000000000000000000000000000000000000000000000000000000000000000000000000000000000000000000000000000000",
      "type": "0x2",
      "transactionHash": "0x02389a0e214f7c0570e4a9b974c47a211910b72a5481d01d00d95463fdfb7eed",
      "transactionIndex": "0x6b",
      "blockHash": "0x9d3db7dff09e4a4704fe04671cbc0995d99efe1915cfe1c8312408eee0a695b2",
      "blockNumber": "0x4363a42",
      "gasUsed": "0x1e35f3",
      "effectiveGasPrice": "0x2faf080",
      "from": "0xa1a629d832972db3b84a4f5fa42d50eff7c8f8de",
      "to": null,
      "contractAddress": "0x30a881d092e67c3ff604e1a85c2a7a0019c78741"
    },
    {
      "status": "0x1",
      "cumulativeGasUsed": "0x126c859",
      "logs": [
        {
          "address": "0x30a881d092e67c3ff604e1a85c2a7a0019c78741",
          "topics": [
            "0x8be0079c531659141344cd1fd0a4f28419497f9722a3daafe3b4186f6b6457e0",
            "0x0000000000000000000000000000000000000000000000000000000000000000",
            "0x000000000000000000000000a1a629d832972db3b84a4f5fa42d50eff7c8f8de"
          ],
          "data": "0x",
          "blockHash": "0x9d3db7dff09e4a4704fe04671cbc0995d99efe1915cfe1c8312408eee0a695b2",
          "blockNumber": "0x4363a42",
          "blockTimestamp": "0x6933be42",
          "transactionHash": "0x5fe646f3171aabb83568d28f34bfc1cf77c477cea02a29edf2ec161f6492fd93",
          "transactionIndex": "0x6c",
          "logIndex": "0x11b",
          "removed": false
        },
        {
          "address": "0xd7deb29ddbb13607375ce50405a574ac2f7d978d",
          "topics": [
            "0xddf252ad1be2c89b69c2b068fc378daa952ba7f163c4a11628f55a4df523b3ef",
            "0x0000000000000000000000000000000000000000000000000000000000000000",
            "0x00000000000000000000000030a881d092e67c3ff604e1a85c2a7a0019c78741",
            "0x000000000000000000000000000000000000000000000000000000000000000c"
          ],
          "data": "0x",
          "blockHash": "0x9d3db7dff09e4a4704fe04671cbc0995d99efe1915cfe1c8312408eee0a695b2",
          "blockNumber": "0x4363a42",
          "blockTimestamp": "0x6933be42",
          "transactionHash": "0x5fe646f3171aabb83568d28f34bfc1cf77c477cea02a29edf2ec161f6492fd93",
          "transactionIndex": "0x6c",
          "logIndex": "0x11c",
          "removed": false
        },
        {
          "address": "0xd7deb29ddbb13607375ce50405a574ac2f7d978d",
          "topics": [
            "0xf8e1a15aba9398e019f0b49df1a4fde98ee17ae345cb5f6b5e2c27f5033e8ce7"
          ],
          "data": "0x000000000000000000000000000000000000000000000000000000000000000c",
          "blockHash": "0x9d3db7dff09e4a4704fe04671cbc0995d99efe1915cfe1c8312408eee0a695b2",
          "blockNumber": "0x4363a42",
          "blockTimestamp": "0x6933be42",
          "transactionHash": "0x5fe646f3171aabb83568d28f34bfc1cf77c477cea02a29edf2ec161f6492fd93",
          "transactionIndex": "0x6c",
          "logIndex": "0x11d",
          "removed": false
        },
        {
          "address": "0xd7deb29ddbb13607375ce50405a574ac2f7d978d",
          "topics": [
            "0x19cbbad03ed58e19c069e99cbc146a5c6ccf0e56c2a09edcfcd8dd2d543845f9",
            "0x000000000000000000000000000000000000000000000000000000000000000c",
            "0x00000000000000000000000030a881d092e67c3ff604e1a85c2a7a0019c78741"
          ],
          "data": "0x00000000000000000000000000000000000000000000000000000000000000000000000000000000000000000000000000000000000000000000000000000040000000000000000000000000000000000000000000000000000000000000005068747470733a2f2f676174657761792e70696e6174612e636c6f75642f697066732f516d6451483368694a6a486347435067586f6442754b6d5a644b756154773764424c47546657556b6376436f6f4100000000000000000000000000000000",
          "blockHash": "0x9d3db7dff09e4a4704fe04671cbc0995d99efe1915cfe1c8312408eee0a695b2",
          "blockNumber": "0x4363a42",
          "blockTimestamp": "0x6933be42",
          "transactionHash": "0x5fe646f3171aabb83568d28f34bfc1cf77c477cea02a29edf2ec161f6492fd93",
          "transactionIndex": "0x6c",
          "logIndex": "0x11e",
          "removed": false
        },
        {
          "address": "0xd7deb29ddbb13607375ce50405a574ac2f7d978d",
          "topics": [
            "0xddf252ad1be2c89b69c2b068fc378daa952ba7f163c4a11628f55a4df523b3ef",
            "0x0000000000000000000000000000000000000000000000000000000000000000",
            "0x00000000000000000000000030a881d092e67c3ff604e1a85c2a7a0019c78741",
            "0x000000000000000000000000000000000000000000000000000000000000000d"
          ],
          "data": "0x",
          "blockHash": "0x9d3db7dff09e4a4704fe04671cbc0995d99efe1915cfe1c8312408eee0a695b2",
          "blockNumber": "0x4363a42",
          "blockTimestamp": "0x6933be42",
          "transactionHash": "0x5fe646f3171aabb83568d28f34bfc1cf77c477cea02a29edf2ec161f6492fd93",
          "transactionIndex": "0x6c",
          "logIndex": "0x11f",
          "removed": false
        },
        {
          "address": "0xd7deb29ddbb13607375ce50405a574ac2f7d978d",
          "topics": [
            "0xf8e1a15aba9398e019f0b49df1a4fde98ee17ae345cb5f6b5e2c27f5033e8ce7"
          ],
          "data": "0x000000000000000000000000000000000000000000000000000000000000000d",
          "blockHash": "0x9d3db7dff09e4a4704fe04671cbc0995d99efe1915cfe1c8312408eee0a695b2",
          "blockNumber": "0x4363a42",
          "blockTimestamp": "0x6933be42",
          "transactionHash": "0x5fe646f3171aabb83568d28f34bfc1cf77c477cea02a29edf2ec161f6492fd93",
          "transactionIndex": "0x6c",
          "logIndex": "0x120",
          "removed": false
        },
        {
          "address": "0xd7deb29ddbb13607375ce50405a574ac2f7d978d",
          "topics": [
            "0x19cbbad03ed58e19c069e99cbc146a5c6ccf0e56c2a09edcfcd8dd2d543845f9",
            "0x000000000000000000000000000000000000000000000000000000000000000d",
            "0x00000000000000000000000030a881d092e67c3ff604e1a85c2a7a0019c78741"
          ],
          "data": "0x00000000000000000000000000000000000000000000000000000000000000000000000000000000000000000000000000000000000000000000000000000040000000000000000000000000000000000000000000000000000000000000005068747470733a2f2f676174657761792e70696e6174612e636c6f75642f697066732f516d6451483368694a6a486347435067586f6442754b6d5a644b756154773764424c47546657556b6376436f6f4100000000000000000000000000000000",
          "blockHash": "0x9d3db7dff09e4a4704fe04671cbc0995d99efe1915cfe1c8312408eee0a695b2",
          "blockNumber": "0x4363a42",
          "blockTimestamp": "0x6933be42",
          "transactionHash": "0x5fe646f3171aabb83568d28f34bfc1cf77c477cea02a29edf2ec161f6492fd93",
          "transactionIndex": "0x6c",
          "logIndex": "0x121",
          "removed": false
        },
        {
          "address": "0xd7deb29ddbb13607375ce50405a574ac2f7d978d",
          "topics": [
            "0xddf252ad1be2c89b69c2b068fc378daa952ba7f163c4a11628f55a4df523b3ef",
            "0x0000000000000000000000000000000000000000000000000000000000000000",
            "0x00000000000000000000000030a881d092e67c3ff604e1a85c2a7a0019c78741",
            "0x000000000000000000000000000000000000000000000000000000000000000e"
          ],
          "data": "0x",
          "blockHash": "0x9d3db7dff09e4a4704fe04671cbc0995d99efe1915cfe1c8312408eee0a695b2",
          "blockNumber": "0x4363a42",
          "blockTimestamp": "0x6933be42",
          "transactionHash": "0x5fe646f3171aabb83568d28f34bfc1cf77c477cea02a29edf2ec161f6492fd93",
          "transactionIndex": "0x6c",
          "logIndex": "0x122",
          "removed": false
        },
        {
          "address": "0xd7deb29ddbb13607375ce50405a574ac2f7d978d",
          "topics": [
            "0xf8e1a15aba9398e019f0b49df1a4fde98ee17ae345cb5f6b5e2c27f5033e8ce7"
          ],
          "data": "0x000000000000000000000000000000000000000000000000000000000000000e",
          "blockHash": "0x9d3db7dff09e4a4704fe04671cbc0995d99efe1915cfe1c8312408eee0a695b2",
          "blockNumber": "0x4363a42",
          "blockTimestamp": "0x6933be42",
          "transactionHash": "0x5fe646f3171aabb83568d28f34bfc1cf77c477cea02a29edf2ec161f6492fd93",
          "transactionIndex": "0x6c",
          "logIndex": "0x123",
          "removed": false
        },
        {
          "address": "0xd7deb29ddbb13607375ce50405a574ac2f7d978d",
          "topics": [
            "0x19cbbad03ed58e19c069e99cbc146a5c6ccf0e56c2a09edcfcd8dd2d543845f9",
            "0x000000000000000000000000000000000000000000000000000000000000000e",
            "0x00000000000000000000000030a881d092e67c3ff604e1a85c2a7a0019c78741"
          ],
          "data": "0x00000000000000000000000000000000000000000000000000000000000000000000000000000000000000000000000000000000000000000000000000000040000000000000000000000000000000000000000000000000000000000000005068747470733a2f2f676174657761792e70696e6174612e636c6f75642f697066732f516d6451483368694a6a486347435067586f6442754b6d5a644b756154773764424c47546657556b6376436f6f4100000000000000000000000000000000",
          "blockHash": "0x9d3db7dff09e4a4704fe04671cbc0995d99efe1915cfe1c8312408eee0a695b2",
          "blockNumber": "0x4363a42",
          "blockTimestamp": "0x6933be42",
          "transactionHash": "0x5fe646f3171aabb83568d28f34bfc1cf77c477cea02a29edf2ec161f6492fd93",
          "transactionIndex": "0x6c",
          "logIndex": "0x124",
          "removed": false
        },
        {
          "address": "0x30a881d092e67c3ff604e1a85c2a7a0019c78741",
          "topics": [
            "0xc7f505b2f371ae2175ee4913f4499e1f2633a7b5936321eed1cdaeb6115181d2"
          ],
          "data": "0x0000000000000000000000000000000000000000000000000000000000000001",
          "blockHash": "0x9d3db7dff09e4a4704fe04671cbc0995d99efe1915cfe1c8312408eee0a695b2",
          "blockNumber": "0x4363a42",
          "blockTimestamp": "0x6933be42",
          "transactionHash": "0x5fe646f3171aabb83568d28f34bfc1cf77c477cea02a29edf2ec161f6492fd93",
          "transactionIndex": "0x6c",
          "logIndex": "0x125",
          "removed": false
        }
      ],
      "logsBloom": "0x00000000000080000040000000000000000022000000000000800000000000000000000000000220000000000000000002000000000000000000000000000000110000000000000800000008000000000003000000000000000000000000000000000000020000000000000010000800000000000000000000000010000000400000000000020000000800000000000008000000000180000000000000000000000000000000000000000000000000002000000010000020000000000000008000000002000000000000000000000220000004000004000000000000040020220000000000000000200000000000000000000000000000000000000000000000",
      "type": "0x2",
      "transactionHash": "0x5fe646f3171aabb83568d28f34bfc1cf77c477cea02a29edf2ec161f6492fd93",
      "transactionIndex": "0x6c",
      "blockHash": "0x9d3db7dff09e4a4704fe04671cbc0995d99efe1915cfe1c8312408eee0a695b2",
      "blockNumber": "0x4363a42",
      "gasUsed": "0x18492b",
      "effectiveGasPrice": "0x2faf080",
      "from": "0xa1a629d832972db3b84a4f5fa42d50eff7c8f8de",
      "to": "0x30a881d092e67c3ff604e1a85c2a7a0019c78741",
      "contractAddress": null
    },
    {
      "status": "0x1",
      "cumulativeGasUsed": "0x1277c98",
      "logs": [],
      "logsBloom": "0x00000000000000000000000000000000000000000000000000000000000000000000000000000000000000000000000000000000000000000000000000000000000000000000000000000000000000000000000000000000000000000000000000000000000000000000000000000000000000000000000000000000000000000000000000000000000000000000000000000000000000000000000000000000000000000000000000000000000000000000000000000000000000000000000000000000000000000000000000000000000000000000000000000000000000000000000000000000000000000000000000000000000000000000000000000000",
      "type": "0x2",
      "transactionHash": "0x5752dfca910a41e9c88ba7828d118bed294c57b25d5e4914416e9166828a9cdb",
      "transactionIndex": "0x6d",
      "blockHash": "0x9d3db7dff09e4a4704fe04671cbc0995d99efe1915cfe1c8312408eee0a695b2",
      "blockNumber": "0x4363a42",
      "gasUsed": "0xb43f",
      "effectiveGasPrice": "0x2faf080",
      "from": "0xa1a629d832972db3b84a4f5fa42d50eff7c8f8de",
      "to": "0x30a881d092e67c3ff604e1a85c2a7a0019c78741",
      "contractAddress": null
    },
    {
      "status": "0x1",
      "cumulativeGasUsed": "0x135161f",
      "logs": [
        {
          "address": "0xf029745dc04256b57659b10099f22b26cbbcf08d",
          "topics": [
            "0x3d0ce9bfc3ed7d6862dbb28b2dea94561fe714a1b4d019aa8af39730d1ad7c3d",
            "0x000000000000000000000000d7deb29ddbb13607375ce50405a574ac2f7d978d"
          ],
          "data": "0x000000000000000000000000000000000000000000000000002386f26fc10000",
          "blockHash": "0x9d3db7dff09e4a4704fe04671cbc0995d99efe1915cfe1c8312408eee0a695b2",
          "blockNumber": "0x4363a42",
          "blockTimestamp": "0x6933be42",
          "transactionHash": "0x552ba46e70928d75285b9583ddad977f1dc4c7d108c712433b0254071799b6a5",
          "transactionIndex": "0x6e",
          "logIndex": "0x126",
          "removed": false
        },
        {
          "address": "0xd7deb29ddbb13607375ce50405a574ac2f7d978d",
          "topics": [
            "0xddf252ad1be2c89b69c2b068fc378daa952ba7f163c4a11628f55a4df523b3ef",
            "0x0000000000000000000000000000000000000000000000000000000000000000",
            "0x000000000000000000000000a1a629d832972db3b84a4f5fa42d50eff7c8f8de",
            "0x000000000000000000000000000000000000000000000000000000000000000f"
          ],
          "data": "0x",
          "blockHash": "0x9d3db7dff09e4a4704fe04671cbc0995d99efe1915cfe1c8312408eee0a695b2",
          "blockNumber": "0x4363a42",
          "blockTimestamp": "0x6933be42",
          "transactionHash": "0x552ba46e70928d75285b9583ddad977f1dc4c7d108c712433b0254071799b6a5",
          "transactionIndex": "0x6e",
          "logIndex": "0x127",
          "removed": false
        },
        {
          "address": "0xd7deb29ddbb13607375ce50405a574ac2f7d978d",
          "topics": [
            "0xf8e1a15aba9398e019f0b49df1a4fde98ee17ae345cb5f6b5e2c27f5033e8ce7"
          ],
          "data": "0x000000000000000000000000000000000000000000000000000000000000000f",
          "blockHash": "0x9d3db7dff09e4a4704fe04671cbc0995d99efe1915cfe1c8312408eee0a695b2",
          "blockNumber": "0x4363a42",
          "blockTimestamp": "0x6933be42",
          "transactionHash": "0x552ba46e70928d75285b9583ddad977f1dc4c7d108c712433b0254071799b6a5",
          "transactionIndex": "0x6e",
          "logIndex": "0x128",
          "removed": false
        },
        {
          "address": "0xd7deb29ddbb13607375ce50405a574ac2f7d978d",
          "topics": [
            "0x19cbbad03ed58e19c069e99cbc146a5c6ccf0e56c2a09edcfcd8dd2d543845f9",
            "0x000000000000000000000000000000000000000000000000000000000000000f",
            "0x000000000000000000000000a1a629d832972db3b84a4f5fa42d50eff7c8f8de"
          ],
          "data": "0x00000000000000000000000030a881d092e67c3ff604e1a85c2a7a0019c787410000000000000000000000000000000000000000000000000000000000000040000000000000000000000000000000000000000000000000000000000000005068747470733a2f2f676174657761792e70696e6174612e636c6f75642f697066732f516d6451483368694a6a486347435067586f6442754b6d5a644b756154773764424c47546657556b6376436f6f4100000000000000000000000000000000",
          "blockHash": "0x9d3db7dff09e4a4704fe04671cbc0995d99efe1915cfe1c8312408eee0a695b2",
          "blockNumber": "0x4363a42",
          "blockTimestamp": "0x6933be42",
          "transactionHash": "0x552ba46e70928d75285b9583ddad977f1dc4c7d108c712433b0254071799b6a5",
          "transactionIndex": "0x6e",
          "logIndex": "0x129",
          "removed": false
        },
        {
          "address": "0x30a881d092e67c3ff604e1a85c2a7a0019c78741",
          "topics": [
            "0x19cbbad03ed58e19c069e99cbc146a5c6ccf0e56c2a09edcfcd8dd2d543845f9",
            "0x000000000000000000000000000000000000000000000000000000000000000f",
            "0x000000000000000000000000a1a629d832972db3b84a4f5fa42d50eff7c8f8de"
          ],
          "data": "0x000000000000000000000000c6f0e3b0cf1edba5555342f02440184fb2ff749d0000000000000000000000000000000000000000000000000000000000000040000000000000000000000000000000000000000000000000000000000000005068747470733a2f2f676174657761792e70696e6174612e636c6f75642f697066732f516d6451483368694a6a486347435067586f6442754b6d5a644b756154773764424c47546657556b6376436f6f4100000000000000000000000000000000",
          "blockHash": "0x9d3db7dff09e4a4704fe04671cbc0995d99efe1915cfe1c8312408eee0a695b2",
          "blockNumber": "0x4363a42",
          "blockTimestamp": "0x6933be42",
          "transactionHash": "0x552ba46e70928d75285b9583ddad977f1dc4c7d108c712433b0254071799b6a5",
          "transactionIndex": "0x6e",
          "logIndex": "0x12a",
          "removed": false
        }
      ],
      "logsBloom": "0x00000000000080000000000000000000000020000000000000000000000000000000000000000000000000000000000002000000000000000000000000000000010000000000004000000008000000000001000000000000000000000002000000040000020000000000000010000801000000000000000000000010000000000000000800020840000000000400000000000000000100000000000000000000000000000000000000000040000000002000000010000010000000000000008000000002000000000000000000000200000004000000000000000000040020000000000200000000200000800000000000000000000000000000000000000000",
      "type": "0x2",
      "transactionHash": "0x552ba46e70928d75285b9583ddad977f1dc4c7d108c712433b0254071799b6a5",
      "transactionIndex": "0x6e",
      "blockHash": "0x9d3db7dff09e4a4704fe04671cbc0995d99efe1915cfe1c8312408eee0a695b2",
      "blockNumber": "0x4363a42",
      "gasUsed": "0xd9987",
      "effectiveGasPrice": "0x2faf080",
      "from": "0xa1a629d832972db3b84a4f5fa42d50eff7c8f8de",
      "to": "0x30a881d092e67c3ff604e1a85c2a7a0019c78741",
      "contractAddress": null
    },
    {
      "status": "0x1",
      "cumulativeGasUsed": "0x1378750",
      "logs": [
        {
          "address": "0x30a881d092e67c3ff604e1a85c2a7a0019c78741",
          "topics": [
            "0xd8ef40481e78617a5bacf7e4566fbb16a8ab0f264fa4ab74220c3524af42c13c",
            "0x6af5339c99f5d9ce3c11a04ffcf58efc6300a1c6632c4cf2a18c921f1928438e",
            "0x000000000000000000000000c6f0e3b0cf1edba5555342f02440184fb2ff749d"
          ],
          "data": "0x0000000000000000000000000000000000000000000000000000000000000001",
          "blockHash": "0x9d3db7dff09e4a4704fe04671cbc0995d99efe1915cfe1c8312408eee0a695b2",
          "blockNumber": "0x4363a42",
          "blockTimestamp": "0x6933be42",
          "transactionHash": "0x9a1f899425d59a4f1118d8fb92ccc7b2daa8fbcce6928f6d2896fa5178df89fe",
          "transactionIndex": "0x6f",
          "logIndex": "0x12b",
          "removed": false
        }
      ],
      "logsBloom": "0x00000000000080000000000000080000000000000000000000000000000000000000000000000000000000000000000000000000000800000000000000000000000080000000000000000000000000000000000000000000000000000000000000000000000000000000000000000000000000000000000000000000000000000000000000000000000000000000000000200000000000000000000000000000000000000000000000000000020000000000000000000000000000000000000000000000000000000001002000000200000004000000000000000000000000000000000000000000000000000000000020000000000000000000000000000800",
      "type": "0x2",
      "transactionHash": "0x9a1f899425d59a4f1118d8fb92ccc7b2daa8fbcce6928f6d2896fa5178df89fe",
      "transactionIndex": "0x6f",
      "blockHash": "0x9d3db7dff09e4a4704fe04671cbc0995d99efe1915cfe1c8312408eee0a695b2",
      "blockNumber": "0x4363a42",
      "gasUsed": "0x27131",
      "effectiveGasPrice": "0x2faf080",
      "from": "0xa1a629d832972db3b84a4f5fa42d50eff7c8f8de",
      "to": "0x30a881d092e67c3ff604e1a85c2a7a0019c78741",
      "contractAddress": null
    },
    {
      "status": "0x1",
      "cumulativeGasUsed": "0x13967ed",
      "logs": [
        {
          "address": "0x30a881d092e67c3ff604e1a85c2a7a0019c78741",
          "topics": [
            "0xd8ef40481e78617a5bacf7e4566fbb16a8ab0f264fa4ab74220c3524af42c13c",
            "0x74586480ab0fcf0297ec9893457bc09d328d0426df2e9d71664b1f30477a0bca",
            "0x000000000000000000000000c6f0e3b0cf1edba5555342f02440184fb2ff749d"
          ],
          "data": "0x0000000000000000000000000000000000000000000000000000000000000000",
          "blockHash": "0x9d3db7dff09e4a4704fe04671cbc0995d99efe1915cfe1c8312408eee0a695b2",
          "blockNumber": "0x4363a42",
          "blockTimestamp": "0x6933be42",
          "transactionHash": "0x4dc74f2fe3704849e6f7d6207909ec8d0346ac57169f61a1481db9f3c46e150d",
          "transactionIndex": "0x70",
          "logIndex": "0x12c",
          "removed": false
        }
      ],
      "logsBloom": "0x00000000000080000000000000080000000000000000000000000000000000000000000000000000000000000000020000000000000000000000000000000000000080000000000000000000000000000000000000000000000000000000000000000000000000000000000000000000000000000000000000000000000010040000000000000000000000000000000000000000000000000000000000000000000000000000000000000000020000000000000000000000000000000000000000000000000000000001000000000200000004000000000000000000000000000000000000000000000000000000000020000000000000000000000000000800",
      "type": "0x2",
      "transactionHash": "0x4dc74f2fe3704849e6f7d6207909ec8d0346ac57169f61a1481db9f3c46e150d",
      "transactionIndex": "0x70",
      "blockHash": "0x9d3db7dff09e4a4704fe04671cbc0995d99efe1915cfe1c8312408eee0a695b2",
      "blockNumber": "0x4363a42",
      "gasUsed": "0x1e09d",
      "effectiveGasPrice": "0x2faf080",
      "from": "0xa1a629d832972db3b84a4f5fa42d50eff7c8f8de",
      "to": "0x30a881d092e67c3ff604e1a85c2a7a0019c78741",
      "contractAddress": null
    }
  ],
  "libraries": [],
  "pending": [],
  "returns": {},
  "timestamp": 1764998724559,
  "chain": 56,
  "commit": "ecc15a1"
}